:020000040800F2
:10000000B8060020CD0100085F0D00082D0D000886
:100010005D0D0008D3020008F50F00080000000085
:10002000000000000000000000000000630D000858
:10003000D502000800000000610D0008650D0008F1
:10004000E7010008E7010008E7010008E7010008F0
:10005000E7010008E7010008E7010008E7010008E0
:10006000E7010008E7010008E7010008E7010008D0
:10007000E7010008E7010008E7010008E7010008C0
:10008000E7010008E7010008E7010008E7010008B0
:10009000E7010008E7010008E7010008E7010008A0
:1000A000E7010008E7010008E7010008E701000890
:1000B000E7010008E7010008E7010008E701000880
:1000C000E7010008E7010008E7010008E701000870
:1000D000E7010008E7010008E7010008E701000860
:1000E000E7010008E7010008E7010008E701000850
:1000F000E7010008E7010008E7010008E701000840
:10010000E7010008E7010008E7010008E70100082F
:10011000E7010008E7010008E7010008E70100081F
:10012000E7010008E7010008E7010008E70100080F
:1001300000F002F800F03AF80AA090E8000C8244BF
:100140008344AAF10107DA4501D100F02FF8AFF29C
:10015000090EBAE80F0013F0010F18BFFB1A43F0A5
:1001600001031847F00F000010100000103A24BFE0
:1001700078C878C1FAD8520724BF30C830C144BF0C
:1001800004680C607047000000230024002500264E
:10019000103A28BF78C1FBD8520728BF30C148BFEA
:1001A0000B6070471FB51FBD10B510BD00F058F8AB
:1001B0001146FFF7F7FF00F06BFF00F076F803B48D
:1001C000FFF7F2FF03BC00F07DF80000094880470C
:1001D00009480047FEE7FEE7FEE7FEE7FEE7FEE729
:1001E000FEE7FEE7FEE7FEE704480549054A064B41
:1001F00070470000C70D000831010008B80000205A
:10020000B8060020B8020020B80200204FF000021B
:1002100000B5134694469646203922BFA0E80C50FC
:10022000A0E80C50B1F12001BFF4F7AF090728BFD7
:10023000A0E80C5048BF0CC05DF804EB890028BF53
:1002400040F8042B08BF704748BF20F8022B11F07C
:10025000804F18BF00F8012B7047704770477047F8
:10026000754600F02BF8AE4605006946534620F06F
:100270000700854618B020B5FFF7B6FFBDE820405F
:100280004FF000064FF000074FF000084FF0000B52
:1002900021F00701AC46ACE8C009ACE8C009ACE805
:1002A000C009ACE8C0098D46704710B50446AFF3ED
:1002B00000802046BDE81040FFF781BF004870472E
:1002C0005800002001491820ABBEFEE726000200BE
:1002D0007047FEE77047000070B5044600F00AF969
:1002E0000546601C02D004480078044400F002F97E
:1002F000401BA042FAD370BD000000202DE9F84F4A
:10030000DFF8C8910024A9F1040B23460F2709F157
:10031000040AABF1040ED1E00125A54006EA05026E
:10032000AA4276D1DFF8A8C14E68A6EB0C08664554
:100330002BD00DDC032E34D005DC36B3012E19D0C2
:10034000022E2FD11BE0112E16D0122E2AD119E029
:10035000B8F5881F19D006DCB8F5803F15D0B8F580
:10036000801F1FD111E0B8F5001F0ED0B8F5041F93
:1003700018D10AE0CB6815E0CB681B1D12E0CB68F2
:1003800008330FE0CB680C330CE08B682BB1012BEA
:100390004FF0080303D0456104E0042302E0056147
:1003A00000E00023FF2A01D8064601E000F1040620
:1003B0004FEA840501D9A5F12005D6F8008007FA97
:1003C00005FC28EA0C0803FA05F548EA0508C6F812
:1003D00000804D68ED0070D53E4DAE6946F00106D7
:1003E000AE61AD6924F0030605F0010500953A4DB4
:1003F00006EB050CDCF80850A607360F07FA06F8DE
:1004000025EA0805DFF8D480404503D14FF0000805
:1004100025E052E0DFF8C880404502D14FF00108E6
:100420001DE0DFF8C080404502D14FF0020816E021
:10043000DFF8B480404502D14FF003080FE0DFF849
:10044000AC80404502D14FF0040808E0DFF8A080FE
:10045000404502D14FF0050801E04FF0060808FAC8
:1004600006F848EA0508CCF808804D68D9F800601D
:10047000ED024D4601D5164300E096432E604D68CF
:10048000DAF80060AD02554601D5164300E0964308
:100490002E604D68DBF80060AD035D4601D5164364
:1004A00000E096432E604D68DEF80060ED0375466F
:1004B00001D5164300E096432E60641C0A68164678
:1004C000E2407FF429AFBDE8F88F00000804014046
:1004D000000011100010024000000140000801401F
:1004E000000C0140001001400014014000180140C0
:1004F000001C014001488068704700000000002097
:100500000248816802781144816070470000002031
:10051000074810B5016841F010010160032000F0A8
:1005200067F80F2000F006F800F024F8002010BD56
:100530000020024070B50D4D04464FF47A712878C2
:10054000B1FBF0F00A490968B1FBF0F000F0AEFA37
:1005500048B9102C07D200222146501E00F028F87E
:1005600000206C6070BD012070BD00000000002004
:100570000C0000200C4808B5816941F0010181613F
:10058000816901F001010091C16941F08051C161AF
:10059000C06900F0805000900448416821F0E0619B
:1005A00041F00071416008BD0010024000000140B0
:1005B000F0B40E4B1B680C46C3F30223C3F10705CE
:1005C000042D00D90425191D072901D2002300E0BC
:1005D000DB1E012606FA05F1491E214099409E4086
:1005E000761E16403143F0BC00F005BD0CED00E076
:1005F000064900F0070208684FF6FF03184040EA7A
:100600000220034A10430860704700000CED00E030
:100610000000FA052DE9F0470F46050061D0434E72
:10062000306800F00700B84209D2306820F00700B7
:1006300038433060306800F00700B84251D1286874
:100640003B4C810712D5400703D5606840F4E06059
:1006500060602878000703D5606840F460506060EF
:100660006068A96820F0F000084360602878C0073F
:1006700028D06868012810D02168022810D0890786
:1006800000292EDA616821F0030101436160FFF760
:1006900031FF804641F288390DE021688903EFE798
:1006A0008901EDE7FFF726FFA0EB0801494502D9D4
:1006B0000320BDE8F0876068696800F00C00B0EBCB
:1006C000810FEFD1306800F00700B8420BD93068D5
:1006D00020F0070038433060306800F00700B8426F
:1006E00001D00120E5E72878400705D56068E96872
:1006F00020F4E060084360602878000706D5606851
:10070000296920F4605040EAC100606000F018F8E8
:100710006168084AC1F30311515CC840064908608A
:1007200006480068FFF706FF0020C2E700200240ED
:1007300000100240421100080C00002004000020BC
:100740000E4A51680E4801F00C03042B11D0082BFF
:100750000FD10C48C1F38343C903C05C0AD551686B
:10076000084AC1F34041921E515C054A5043B0FB18
:10077000F1F0704704494843704700000010024000
:1007800000127A003211000800093D002DE9F84FEF
:10079000040070D02078C04DC00749D06868C0F30D
:1007A0008100012807D06868C0F38100022809D1C0
:1007B0006868C00306D52868800339D560680028BA
:1007C000E7D035E06068B0F5803F0BD010B1B0F5F0
:1007D000A02F11D0286820F480302860286820F4E9
:1007E000802002E0286840F480302860606890B182
:1007F000FFF780FE06460AE0286840F48020286063
:10080000F0E700BFFFF776FE801B642873D82868E6
:100810008003F7D50CE0FFF76DFE064605E000BF4C
:10082000FFF768FE801B6428F0D828688003F7D49F
:1008300020789A4E80074FF001094FF0000839D513
:10084000686810F00C0F07D06868C0F381000228B8
:1008500009D16868C00306D42868800714D52069C8
:10086000012808D110E02069B0B1C6F80090FFF768
:1008700041FE074605E00AE1FFF73CFEC01B0228E7
:10088000C4D828688007F7D52868616920F0F80087
:1008900040EAC10028600DE0C6F80080FFF72AFE9C
:1008A000074604E0FFF726FEC01B022823D828686D
:1008B0008007F7D4207800072CD57948A169D9B1F1
:1008C000C0F80090FFF716FE074604E0FFF712FE9F
:1008D000C01B02280FD8686A8007F7D571484FF40B
:1008E000FA510068B0FBF1F0009000BF0098411E83
:1008F0000091FAD20EE080E0C0F80080FFF7FAFD28
:10090000074604E0FFF7F6FDC01B022875D8686AA9
:100910008007F7D42078400760D5E8690027C00039
:1009200008D4E86940F08050E861E869012700F0E8
:10093000805000905C480168C90513D40168834663
:1009400041F480710160FFF7D5FD824606E000BFEB
:10095000FFF7D0FDA0EB0A0064284ED8DBF80000BA
:10096000C005F5D5E06801280AD008B1052813D0E4
:10097000286A20F001002862286A20F0040002E0C2
:10098000286A40F001002862E06841F2883B98B193
:10099000FFF7B0FD82460BE0286A40F004002862B1
:1009A000EEE700BFFFF7A6FDA0EB0A0159455AD8B4
:1009B000286A8007F6D50CE0FFF79CFD824605E02B
:1009C000FFF798FDA0EB0A0159454CD8286A80072B
:1009D000F6D41FB1E86920F08050E861E06988B37F
:1009E0006968C1F38101022944D00228C6F86080F9
:1009F00004D0FFF77FFD044638E034E0FFF77AFDCE
:100A0000074604E0FFF776FDC01B02282BD82868B4
:100A10008001F7D4206AB0F5803F05D16868A168ED
:100A200020F4003008436860D4E90801084369688D
:100A300021F4741108436860C6F86090FFF75AFD0E
:100A4000044606E025E000BFFFF754FD001B022826
:100A500009D828688001F7D51BE000BFFFF74AFDE1
:100A6000001B022802D90320BDE8F88F2868800106
:100A7000F4D40EE00128F7D06868226A00F48031CF
:100A8000914204D1616A00F47010884201D00120C3
:100A9000EAE70020E8E700000010024000004242C0
:100AA000800442420C0000200070004010B5401E3F
:100AB000B0F1807F01D3012010BD4FF0E0246061D0
:100AC0000F21601700F097FA0020A0610720206135
:100AD000002010BD70B5044690F83C0000260D467D
:100AE00001280FD0012084F83C006AB1042A1DD0EF
:100AF000082A2FD00C2A3FD00126002084F83C0081
:100B0000304670BD022070BD206800F0B1F9206849
:100B1000816941F0080181612068816921F0040147
:100B20008161206881692A69114311E0206800F021
:100B3000CFF92068816941F4006181612068816991
:100B400021F480618161206881692A6941EA02217A
:100B50008161D2E7206800F0F1F92068C16941F0B5
:100B60000801C1612068C16921F00401C1612068E8
:100B7000C1692A69114311E0206800F013FA206866
:100B8000C16941F40061C1612068C16921F48061DB
:100B9000C1612068C1692A6941EA0221C161ACE7EB
:100BA00010B5040003D094F83D0010B107E0012017
:100BB00010BD002084F83C00204600F01FF8022001
:100BC00084F83D00211D206800F0FEF8012084F823
:100BD000460084F83E0084F83F0084F8400084F822
:100BE000410084F8420084F8430084F8440084F80B
:100BF000450084F83D00002010BD000010B50068DD
:100C0000194986B088422DD1184CA06940F00800DF
:100C1000A061A06900F008000490E06940F00200C3
:100C2000E061E069694600F0020004902020009035
:100C30000220019001200290032003900C48FFF74E
:100C40005DFBA06940F00100A061A06900F0010017
:100C500004900848416821F4406141F0E06141F4AA
:100C60000061416006B010BD000400400010024069
:100C7000000C01400000014010B50446022249B1B9
:100C800004290ED0082913D094F84100012816D069
:100C9000012010BD94F83E000128F9D184F83E20CF
:100CA0000FE094F83F000128F2D184F83F2008E0DB
:100CB00094F840000128EBD184F8402001E084F84A
:100CC00041200122206800F0C5F813492068134A2A
:100CD000884201D0904203D1436C43F40043436403
:100CE000206888420DD090420BD0B0F1804F08D0E0
:100CF0000B49884205D00B49884202D00A498842F4
:100D000004D1816801F00701062903D0016841F090
:100D100001010160002010BD002C014000340140A1
:100D20000004004000080040000C0040FEE7000006
:100D3000094808B5816941F010018161816901F0BC
:100D400010010091816941F004018161806900F026
:100D50000400009008BD000000100240FEE7FEE71E
:100D600070477047FFF7CCBB30B58FB0282168467D
:100D7000FFF74CFA14210AA8FFF748FA01210804EA
:100D8000CDE900100024029402250491CDE907501A
:100D90004FF4E01009906846FFF7F8FC08B172B60E
:100DA000FEE70F20CDE90A054FF48060CDE90C4045
:100DB00002210AA80E94FFF72DFC002801D072B67C
:100DC000FEE70FB030BD7047F0B502681C4B1D4DFB
:100DD0001D4E1E4F1E4C4FF0804C984209D0A04231
:100DE00007D0604505D0A84203D0B04201D0B84238
:100DF00004D122F0700E4A6842EA0E02984209D0ED
:100E0000A04207D0604505D0A84203D0B04201D02F
:100E1000B84203D122F44075CA682A434D6922F0D2
:100E200080022A4302608A68C2620A68826298422B
:100E300001D0A04201D10969016301214161F0BDE6
:100E4000002C01400004004000080040000C00405D
:100E50000034014010B501F01F030121046A9940DC
:100E60008C430462016A9A401143016210BD000084
:100E7000F0B5036A026A22F00102026242688469E4
:100E8000124E24F073050C682C4323F002058B6886
:100E90002B430D4DA84201D0B04205D123F00807E5
:100EA000CB683B4323F00403A84201D0B04205D1F4
:100EB0004D6922F4407215438A692A434260846175
:100EC000496841630362F0BD002C014000340140D9
:100ED000F0B5026A036A23F0100303624368846971
:100EE0000D6824F4E64444EA05248D6822F02002CB
:100EF00042EA05120F4D104EA84201D0B04206D171
:100F0000CF6822F0800242EA071222F04002A84293
:100F100001D0B04207D14D6923F4406343EA850311
:100F20008D6943EA85034360846149688163026295
:100F3000F0BD0000002C014000340140F0B5026A11
:100F4000036A23F4807303624368C46922F4007265
:100F500024F073050C68124E2C438D6842EA05227A
:100F60000E4DA84201D0B04206D1CF6822F40062F3
:100F700042EA072222F48062A84201D0B04207D19F
:100F80004D6923F4405343EA05138D6943EA051381
:100F90004360C4614968C1630262F0BD002C014036
:100FA0000034014030B5046A026A22F480520262C1
:100FB0004268C3690D6823F4E64343EA05238D685C
:100FC00024F4005444EA0534084DA84202D0084DE8
:100FD000A84204D14D6922F4804242EA851242605F
:100FE000C36149680164046230BD0000002C014007
:100FF00000340140FEE70907090E002804DB00F178
:10100000E02080F80014704700F00F0000F1E020AD
:1010100080F8141D70470000014909688863704713
:101020001000002010B500F005F8BDE8104000F0F9
:1010300059B8000070B5134886B0816941F00801C5
:101040008161816901F008010491816941F04001E9
:101050008161806901242025CDE9005400F0400021
:1010600003260294CDE9036069460748FFF746F975
:10107000CDE90054CDE9024669460448FFF73EF940
:1010800006B070BD00100240000C01400018014085
:10109000FFF73EFAFFF7C6FFFFF766FEFFF748FED1
:1010A00001252C460DE0641C00E0641E632C07D370
:1010B00000252046FFF7B0FF0A20FFF70DF9F4E7FF
:1010C00044B12046FFF7A8FF0A20FFF705F9002DDD
:1010D000EBD0E8E701252046FFF79EFF0A20FFF747
:1010E000FBF8E0E700B5114887B00F49016040F216
:1010F000CF2141606321C160002181604FF48041B4
:101100008161FFF74DFD60200090312001900820A3
:101110000390042269460548FFF7DCFC04210348DC
:10112000FFF7AAFD07B000BD00040040100000203A
:10113000010202030405060708090A0B0C0D0E0F35
:101140001010000000000000000001020304060768
:1011500008090000741100080000002010000000C1
:101160006C0100088411000810000020A80600008F
:1011700088010008010000001000000000000000CD
:041180000024F40053
:0400000508000131BD
:00000001FF
