:020000040800F2
:1000000030090020CD010008A91B00085F1B000873
:10001000A51B000869030008392200080000000041
:10002000000000000000000000000000D91B0008D4
:100030006D03000800000000AD1B0008DB1B00087A
:10004000E7010008E7010008E7010008E7010008F0
:10005000E7010008E7010008E7010008E7010008E0
:10006000E7010008E7010008E7010008E7010008D0
:10007000E7010008E7010008E7010008E7010008C0
:10008000E7010008E7010008E7010008E7010008B0
:10009000E7010008E7010008E7010008E7010008A0
:1000A000E7010008E7010008E7010008E701000890
:1000B000E7010008E70100084D1C0008E7010008FF
:1000C000E7010008E7010008E7010008E701000870
:1000D000E70100081D220008E7010008E701000809
:1000E000E7010008E7010008E7010008E701000850
:1000F000E7010008E7010008E7010008E701000840
:10010000E7010008E7010008E7010008E70100082F
:10011000E7010008E70100085D1C0008E70100088E
:10012000E7010008E7010008E7010008E70100080F
:1001300000F002F800F03AF80AA090E8000C8244BF
:100140008344AAF10107DA4501D100F02FF8AFF29C
:10015000090EBAE80F0013F0010F18BFFB1A43F0A5
:10016000010318473830000058300000103A24BF0F
:1001700078C878C1FAD8520724BF30C830C144BF0C
:1001800004680C607047000000230024002500264E
:10019000103A28BF78C1FBD8520728BF30C148BFEA
:1001A0000B6070471FB51FBD10B510BD00F096F86D
:1001B0001146FFF7F7FF02F09FF900F0C8F803B40B
:1001C000FFF7F2FF03BC02F055F800000948804732
:1001D00009480047FEE7FEE7FEE7FEE7FEE7FEE729
:1001E000FEE7FEE7FEE7FEE704480549054A064B41
:1001F00070470000491C000831010008300300204E
:100200003009002030050020300500207047000034
:100210000FB4044910B503AA029800F031F810BCDD
:100220005DF814FB200000204FF0000200B51346DB
:1002300094469646203922BFA0E80C50A0E80C5006
:10024000B1F12001BFF4F7AF090728BFA0E80C50B7
:1002500048BF0CC05DF804EB890028BF40F8042BB0
:1002600008BF704748BF20F8022B11F0804F18BF1D
:1002700000F8012B704770477047704770470000C7
:10028000074B70B50D467B4400F011F80446284634
:1002900000F020F810B14FF0FF3070BD204670BD67
:1002A0004F22000001694A1C02610878704700B5BE
:1002B0008FB0CDE901310021059105497944CDE99F
:1002C00003101146684600F02EF80FB000BD000084
:1002D000E5FFFFFF007B00F080007047754600F0EF
:1002E0003FF8AE4605006946534620F007008546B4
:1002F00018B020B5FFF778FFBDE820404FF00006AA
:100300004FF000074FF000084FF0000B21F00701FD
:10031000AC46ACE8C009ACE8C009ACE8C009ACE840
:10032000C0098D4670472DE9F04106460024D6E904
:100330000170F5688046304603E04146B847641CCA
:100340003046A8470028F8D12046BDE8F08110B516
:100350000446AFF300802046BDE81040FFF72FBFF2
:1003600000487047CC02002000BFFEE7704772B61D
:1003700000BFFEE70146002291F82100022808D0C4
:100380000420886300BF002081F8200000BF012006
:1003900070470868006820F00E000B681860086855
:1003A000006820F001000B68186091F840300120CF
:1003B0009840CB6B5860012081F8210000BF0020DD
:1003C00081F8200000BF1046E2E7000070B5044647
:1003D000002594F82100022803D00420A063012501
:1003E000C1E02068006820F00E00216808602068E5
:1003F000006820F00100216808605C49206888429C
:1004000052D95A4978392068884201D1012047E001
:10041000564964392068884201D1102040E0534990
:1004200050392068884201D1801539E04F493C3964
:100430002068884201D1801432E04C492839206874
:10044000884202D14FF480302AE0484914392068AC
:10045000884202D14FF4801022E04449206888424B
:1004600001D140041CE042492068884201D10120AA
:1004700016E03F4914312068884201D110200FE076
:100480003B4928312068884201D1801508E038496D
:100490003C312068884201D1801401E04FF4803063
:1004A0003349091F086051E0304978392068884293
:1004B00001D1012047E02D4964392068884201D1EB
:1004C000102040E0294950392068884201D1801528
:1004D00039E026493C392068884201D1801432E055
:1004E000224928392068884202D14FF480302AE01E
:1004F0001E4914392068884202D14FF4801022E04E
:100500001A492068884201D140041CE0184920683B
:10051000884201D1012016E0154914312068884233
:1005200001D110200FE0124928312068884201D102
:10053000801508E00E493C312068884201D18014C2
:1005400001E04FF48030094980394860012084F887
:10055000210000BF002084F8200000BF606B10B1B4
:100560002046616B8847284670BD0000800002402D
:10057000080402402DE9F847024600239C467BE12F
:100580004FF0010808FA03F4D1F8008008EA0400EB
:10059000A0427DD1DFF8F4A2D1F80480A8EB0A09CB
:1005A000D0453AD014DCB8F1030F50D009DCB8F1D3
:1005B000000F31D0B8F1010F1CD0B8F1020F49D1B2
:1005C00020E0B8F1110F18D0B8F1120F42D11EE09F
:1005D000B9F5881F25D006DCB9F5803F20D0B9F5E4
:1005E000801F37D11AE0B9F5001F18D0B9F5041FE4
:1005F00030D117E0D1F80CC02DE0D1F80C8008F113
:10060000040C28E0D1F80C8008F1080C23E0D1F8A4
:100610000C8008F10C0C1EE000BF00BF00BF00BF43
:1006200000BF00BFD1F80880B8F1000F02D14FF031
:10063000040C0BE0D1F80880B8F1010F03D14FF0A2
:10064000080C146102E04FF0080C546103E04FF015
:10065000000C00E000BF00BFFF2801D8904601E079
:1006600002F104084646FF2802D84FEA830803E057
:10067000A3F108084FEA88084746D6F800804FF0F3
:100680000F0909FA07F928EA09080CFA07F900E046
:100690007AE048EA0908C6F80080D1F8048008F03A
:1006A0008058B8F1805F6FD100BFDFF8E481D8F8DF
:1006B000188048F00108DFF8D891C9F81880C846BA
:1006C000D8F8188008F00108CDF8008000BF00BFFE
:1006D0004FEAB9384FEA930958F829504FEA83781E
:1006E0004FEA18794FF00F0808FA09F825EA0805CB
:1006F000DFF8A081424502D14FF0000824E0DFF886
:100700009881424502D14FF001081DE0DFF88C814D
:10071000424502D14FF0020816E0DFF884814245DD
:1007200002D14FF003080FE0DFF87881424502D193
:100730004FF0040808E0DFF87081424502D14FF025
:10074000050801E04FF006084FEA83794FEA19796E
:1007500008FA09F848EA0505DFF850814FEA9309DD
:1007600048F82950D1F8048008F48018B8F5801FA3
:100770000BD1DFF83C81D8F8008048EA0008DFF8A8
:100780003091C9F800800AE075E0DFF82481D8F8DC
:10079000008028EA0008DFF81891C9F80080D1F835
:1007A000048008F40018B8F5001F0ED1DFF80081AE
:1007B00008F10408D8F8008048EA0008DFF8F09053
:1007C00009F10409C9F800800DE0DFF8E48008F1C0
:1007D0000408D8F8008028EA0008DFF8D49009F16E
:1007E0000409C9F80080D1F8048008F40038B8F58D
:1007F000003F0ED1DFF8B880A8F10408D8F80080D7
:1008000048EA0008DFF8A890A9F10409C9F80080B7
:100810000DE0DFF89C80A8F10408D8F8008028EAF1
:100820000008DFF88C90A9F10409C9F80080D1F81C
:10083000048008F48038B8F5803F0ED1DFF870806E
:10084000A8F10808D8F8008048EA0008DFF86090AE
:10085000A9F10809C9F800800DE0DFF85480A8F17B
:100860000808D8F8008028EA0008DFF84490A9F1C9
:100870000809C9F800805B1CD1F8008028FA03F849
:10088000B8F1000F7FF47CAEBDE8F88700001110CE
:100890000010024000080140000C0140001001401F
:1008A0000014014000180140001C014008000140F4
:1008B000080401400AB1016101E00B0403617047C3
:1008C00001480068704700000000002003480068ED
:1008D0000349097808440149086070470000002076
:1008E0000800002010B50848006840F010000649D4
:1008F0000860032000F0A8F80F2000F007F800F0CF
:100900002BF8002010BD00000020024070B5044606
:100910000E4800784FF47A71B1FBF0F00C49096889
:10092000B1FBF0F5284600F0F9FB08B1012070BDDD
:10093000102C07D200222146501E00F047F805482F
:10094000046001E00120F2E70020F0E70800002049
:100950000C0000200400002008B500BF1148806989
:1009600040F001000F4988610846806900F00100ED
:10097000009000BF00BF00BF0846C06940F0805033
:10098000C8610846C06900F08050009000BF00BFF9
:1009900000BF0549486820F0E06040F00070486002
:1009A00000BF08BD0010024000000140014608469B
:1009B000002809DB00F01F0301229A4043099B0035
:1009C00003F1E023C3F8002100BF70472DE9F05F79
:1009D00080460D461646002701F030FC0746394692
:1009E0002A46334601F00700C0F1070ABAF1040FA6
:1009F00002D94FF0040A01E0C0F1070AD14600F124
:100A0000040ABAF1070F02D24FF0000A01E0A0F188
:100A1000030AD4464FF0010A0AFA09FAAAF1010AB8
:100A20000AEA020A0AFA0CFA4FF0010B0BFA0CFB65
:100A3000ABF1010B0BEA030B4AEA0B0421464046DB
:100A400001F004FCBDE8F09F00BF00F00702064B78
:100A500019684FF6FF031940044B0B4343EA022188
:100A6000014B196000BF70470CED00E00000FA0573
:100A700070B504460D460CB9012070BD5A48006897
:100A800000F00700A8420ED25748006820F0070087
:100A90002843554908600846006800F00700A8424E
:100AA00001D00120E9E7207800F0020002281DD1E2
:100AB000207800F00400042805D14C48406840F438
:100AC000E0604A494860207800F00800082805D115
:100AD0004648406840F46050444948604348406894
:100AE00020F0F000A168084340494860207800F0F9
:100AF000010078B36068012806D13C48006800F422
:100B0000003090B90120B8E76068022806D1374864
:100B1000006800F0007040B90120AEE7334800687B
:100B200000F0020008B90120A7E73048406820F033
:100B30000300616808432D494860FFF7C1FE06467F
:100B400009E0FFF7BDFE801B41F28831884202D9DF
:100B5000032092E707E02548406800F00C00616838
:100B6000B0EB810FEDD12048006800F00700A842EB
:100B70000ED91D48006820F0070028431A49086074
:100B80000846006800F00700A84201D0012074E781
:100B9000207800F00400042807D11448406820F4AD
:100BA000E060E168084311494860207800F00800DF
:100BB000082808D10D48406820F46050216940EAB7
:100BC000C1000A49486000F03FF808494968C1F38C
:100BD0000311074A515CC84006490860064800688E
:100BE000FFF794FE002048E700200240001002407A
:100BF000843100080C000020040000200148006837
:100C0000704700000C00002000B5FFF7F7FF044913
:100C10004968C1F30221034A515CC84000BD00008D
:100C2000001002409431000800B5FFF7E7FF0449C7
:100C30004968C1F3C221034A515CC84000BD0000AD
:100C4000001002409431000870B5002100220024F9
:100C500000230020134D696801F00C05F5B1042D47
:100C600002D0082D19D101E00F4819E00F4DC1F352
:100C70008346AB5D01F4803555B10A4D6D68C5F30F
:100C800040450B4E725D084D5D43B5FBF2F402E04A
:100C9000084D03FB05F4204602E000BF024800BFF8
:100CA00000BF70BD0010024000127A0072310008CF
:100CB0008231000800093D00F8B504460CB9012056
:100CC000F8BD207800F00100002878D0F84840688E
:100CD00000F00C0004280CD0F548406800F00C002F
:100CE000082811D1F248406800F48030B0F5803F08
:100CF0000AD1EF48006800F4003000285FD0606837
:100D000000285CD10120DBE700BF6068B0F5803FC0
:100D100006D1E748006840F48030E549086028E0E3
:100D2000606858B9E248006820F48030E049086003
:100D30000846006820F4802008601AE06068B0F57A
:100D4000A02F0BD1DA48006840F48020D849086011
:100D50000846006840F4803008600AE0D448006823
:100D600020F48030D24908600846006820F48020D2
:100D7000086000BF606888B1FFF7A2FD054606E085
:100D8000FFF79EFD401B642801D9032098E7C8485F
:100D9000006800F400300028F2D010E0FFF790FD6A
:100DA000054606E0FFF78CFD401B642801D90320AF
:100DB00086E7BF48006800F400300028F2D12078B0
:100DC00000F00200022857D1B948406800F00C003A
:100DD00050B1B748406800F00C00082818D1B4485A
:100DE000406800F4803098B9B148006800F0020013
:100DF00020B12069012801D0012061E7AC480068DA
:100E000020F0F800616940EAC100A949086033E0B8
:100E10002069E8B10120A7490860FFF751FD0546A8
:100E200006E0FFF74DFD401B022801D9032047E7EC
:100E30009F48006800F002000028F2D09C4800683B
:100E400020F0F800616940EAC1009949086013E0A8
:100E5000002098490860FFF733FD054606E0FFF7DC
:100E60002FFD401B022801D9032029E79048006884
:100E700000F002000028F2D1207800F008000828D5
:100E80002DD1A069B8B101208B490860FFF718FD8A
:100E9000054606E0FFF714FD401B022801D9032098
:100EA0000EE78348406A00F002000028F2D00120DB
:100EB00000F07EFE13E000207F490860FFF700FD90
:100EC000054606E0FFF7FCFC401B022801D9032081
:100ED000F6E67748406A00F002000028F2D1207858
:100EE00000F00400042873D100277148C06900F0A5
:100EF000805070B900BF6E48C06940F080506C49A6
:100F0000C8610846C06900F08050009000BF00BF73
:100F100001276A48006800F48070B0B9674800682B
:100F200040F4807065490860FFF7CAFC054606E09A
:100F3000FFF7C6FC401B642801D90320C0E65F48C8
:100F4000006800F480700028F2D000BFE06801283B
:100F500006D15748006A40F001005549086227E071
:100F6000E06858B95248006A20F001005049086210
:100F70000846006A20F00400086219E0E0680528CD
:100F80000BD14B48006A40F004004949086208460A
:100F9000006A40F0010008620AE04548006A20F05B
:100FA0000100434908620846006A20F00400086214
:100FB00000BFE068A0B1FFF783FC054609E0FFF73A
:100FC0007FFC401B41F28831884202D9032077E63A
:100FD00022E03748006A00F002000028EFD012E05B
:100FE000FFF76EFC054608E0FFF76AFC401B41F284
:100FF0008831884201D9032062E62D48006A00F05A
:1010000002000028F0D1012F05D12948C06920F045
:1010100080502749C86100BFE069C8B324484068D0
:1010200000F00C00082860D0E069022848D10020B8
:1010300020490866FFF744FC054606E0FFF740FC40
:10104000401B022801D903203AE61948006800F045
:1010500000700028F2D1206AB0F5803F07D1144813
:10106000406820F40030A168084311494860D4E981
:10107000080108430E49496821F4741108430C49DA
:10108000486001200B490866FFF71AFC054607E097
:101090003DE0FFF715FC401B022801D903200FE6B5
:1010A0000348006800F000700028F2D02FE0000034
:1010B00000100240000042428004424200700040A2
:1010C000002014490866FFF7FBFB054606E0FFF722
:1010D000F7FB401B022801D90320F1E50E48006808
:1010E00000F000700028F2D111E0E069012800D181
:1010F000E6E50948466806F48031206A814204D159
:1011000006F47011606A814201D00120D8E5002008
:10111000D6E50000000042420010024070B50446CF
:101120002546681EB0F1807F01D301200FE0681EC4
:101130004FF0E02148610F214FF0FF3001F086F8B9
:1011400000204FF0E021886107200861002070BD79
:1011500070477047704710B5044620680069C0F3B7
:101160004000D8B12068C068C0F34000B0B16FF053
:10117000020021680861012020772068806900F062
:10118000030018B12046FFF7E5FF05E0204600F018
:10119000ADF8204600F004FA0020207720680069AE
:1011A000C0F38000D8B12068C068C0F38000B0B13F
:1011B0006FF00400216808610220207720688069B0
:1011C00000F4407018B12046FFF7C4FF05E0204648
:1011D00000F08CF8204600F0E3F90020207720682A
:1011E0000069C0F3C000D8B12068C068C0F3C00077
:1011F000B0B16FF0080021680861042020772068F2
:10120000C06900F0030018B12046FFF7A3FF05E016
:10121000204600F06BF8204600F0C2F9002020774D
:1012200020680069C0F30010D8B12068C068C0F31E
:101230000010B0B16FF0100021680861082020771D
:101240002068C06900F4407018B12046FFF782FFA3
:1012500005E0204600F04AF8204600F0A1F9002001
:1012600020772068006900F0010058B12068C0684C
:1012700000F0010030B16FF00100216808612046E4
:1012800000F00AFA20680069C0F3C01058B1206865
:10129000C068C0F3C01030B16FF0800021680861F1
:1012A0002046FFF755FF20680069C0F3801058B151
:1012B0002068C068C0F3801030B16FF04000216832
:1012C0000861204600F01EFA20680069C0F3401053
:1012D00058B12068C068C0F3401030B16FF02000F2
:1012E000216808612046FFF734FF10BD70472DE9E3
:1012F000F04104460D461646002700BF94F83C0016
:10130000012802D10220BDE8F081012084F83C00D0
:1013100000BF36B1042E1BD0082E31D00C2E5ED16A
:1013200045E02946206800F001FD2068806940F012
:101330000800216888612068806920F00400216825
:10134000886120688069296908432168886148E0CC
:101350002946206800F022FD2068806940F4006082
:10136000216888612068806920F480602168886134
:1013700020688069296940EA01202168886130E09D
:101380002946206800F048FD2068C06940F0080048
:101390002168C8612068C06920F004002168C86124
:1013A0002068C069296908432168C86119E0294695
:1013B000206800F06DFD2068C06940F4006021687D
:1013C000C8612068C06920F480602168C861206815
:1013D000C069296940EA01202168C86101E001274C
:1013E00000BF00BF00BF002084F83C0000BF3846AB
:1013F00089E710B504460CB9012010BD94F83D00F2
:1014000028B9002084F83C00204600F025F802208E
:1014100084F83D00211D206800F028FC012084F89C
:10142000460000BF84F83E0001213F2001554020C6
:1014300001554120015500BF00BF012084F8420042
:1014400043200155442001554520015500BF01208E
:1014500084F83D000020D0E710B586B004464B4923
:101460002068884240D100BF4948806940F00800A8
:10147000474988610846806900F00800019000BF74
:1014800000BF00BF0846C06940F00200C8610846BE
:10149000C06900F00200019000BF00BF2020029050
:1014A00002200390012004900320059002A93948EE
:1014B000FFF760F800BF3648806940F0010034490A
:1014C00088610846806900F00100019000BF00BFFC
:1014D00000BF3149486820F4406040F0E06040F4CB
:1014E0000060486000BF4EE02068B0F1804F4AD1F4
:1014F00000BF2748806940F00400254988610846FC
:10150000806900F00400019000BF00BF00BF0846E2
:10151000C06940F00100C8610846C06900F00100E0
:10152000019000BF00BF0120029002200390002024
:1015300004900320059002A91848FFF71BF8022029
:1015400002900390002004900320059002A9134804
:10155000FFF710F80420029002200390012004906D
:101560000320059002A90D48FFF704F80820029017
:1015700002200390012004900320059002A907484F
:10158000FEF7F8FF00BF06B010BD000000040040E9
:1015900000100240000C0140000001400008014022
:1015A0007047000070B504460D4615B994F83E002A
:1015B0000BE0042D02D13F20005D06E0082D02D192
:1015C0004020005D01E04120005D012801D00120A4
:1015D00070BD1DB9022084F83E000EE0042D03D139
:1015E00002213F20015508E0082D03D102214020AF
:1015F000015502E0022141200155012229462068BF
:1016000000F082FB1F492068884203D01E492068F1
:10161000884201D1012000E0002028B12068406C00
:1016200040F400402168486416492068884213D07D
:101630001549206888420FD02068B0F1804F0BD048
:1016400012492068884207D011492068884203D097
:101650001049206888420CD12068806800F0070695
:10166000062E0CD02068006840F001002168086058
:1016700005E02068006840F0010021680860002053
:10168000A6E70000002C01400034014000040040A7
:1016900000080040000C004070B5044600251549C4
:1016A0002068884206D100F0DFFE0546284600F09B
:1016B0007DFE1DE010492068884219D10F4800685E
:1016C000006800F01000102809D10D48D0E9002072
:1016D000521E60F100000A49C1E9002008E00848F4
:1016E000D0E90020521C40F100000549C1E900206A
:1016F00070BD0000001000400008004034000020D1
:101700001000002070477047704700002DE9F84F27
:101710000446206805682068C668206847694FF05D
:101720000009CA4605F00F09B9F1000F0AD105F00A
:10173000200038B106F0200020B1204600F022FC45
:10174000BDE8F88FB9F1000F7BD007F0010018B9A0
:1017500006F49070002874D005F0010030B106F452
:10176000807018B1606C40F00100606405F0040006
:1017700030B107F0010018B1606C40F00200606405
:1017800005F0020030B107F0010018B1606C40F0C4
:101790000400606405F0080048B106F0200010B9AC
:1017A00007F0010018B1606C40F008006064606CE4
:1017B000002845D005F0200028B106F0200010B127
:1017C000204600F0DFFB20684069C0F3801A606C9F
:1017D00000F0080010B9BAF1000F2CD0204600F03C
:1017E0008BFB2068406900F0400000B300BF00BFE1
:1017F0002168143151E8001F21F0400021681431A4
:1018000041E80002002AF3D100BFE06B50B17748F5
:10181000E16B4863E06BFEF7D9FD88B1E06B416B8B
:1018200088470DE02046FFF76FFF09E009E02046FA
:10183000FFF76AFF04E02046FFF766FF00206064C0
:101840007EE7206B012877D105F01000002873D0C7
:1018500006F010000028FAD000BF00200090206899
:101860000068009020684068009000BF00BF2068BA
:10187000406900F0400000285FD0E06B00684068DD
:101880001FFA80F8B8F1000F55D0A08D404552DD09
:10189000A4F82E80E06B8069202843D000BF00BFF1
:1018A00021680C3151E8001F21F4807021680C314F
:1018B00041E80002002AF3D100BF00BF00BF216849
:1018C000143151E8001F21F001002168143141E872
:1018D0000002002AF3D100BF00BF00BF216814310D
:1018E00051E8001F21F040002168143141E8000256
:1018F000002AF3D100BF202084F84200002020639A
:1019000000BF00BF21680C3151E8001F21F010001A
:1019100021680C3141E80002002AF3D100BFE06BDE
:10192000FEF728FD02206063A08DE28D801A81B24F
:101930002046FFF7E8FE03E742E0A08DE18D401A64
:101940001FFA80F8E08DD0B3B8F1000F37D000BF98
:1019500000BF21680C3151E8001F21F4907021680C
:101960000C3141E80002002AF3D100BF00BF00BFE4
:101970002168143151E8001F21F001002168143161
:1019800041E80002002AF3D100BF202084F8420081
:101990000020206300BF00BF21680C3151E8001F08
:1019A00021F0100021680C3141E80002002AF3D137
:1019B00000BF0220606341462046FFF7A4FEBFE659
:1019C00005F0800030B106F0800018B1204600F02C
:1019D000F5FBB5E605F0400030B106F0400018B167
:1019E000204600F0BFFAABE600BFA9E6E51E0008FE
:1019F00010B504460CB9012010BDA06900B100E08B
:101A000000BF94F8410028B9002084F84000204627
:101A100000F02AF8242084F841002068C06820F4EF
:101A200000502168C860204600F02AFB2068006949
:101A300020F49040216808612068406920F02A0065
:101A4000216848612068C06840F400502168C8607F
:101A500000206064202084F8410084F842000020C7
:101A6000606300BFC8E7000010B586B00446274990
:101A70002068884247D100BF2548806940F48040F3
:101A8000234988610846806900F48040019000BFC6
:101A900000BF00BF0846806940F004008861084626
:101AA000806900F00400019000BF00BF00BF08463D
:101AB000806940F0010088610846806900F00100FB
:101AC000019000BF00BF4815029002200390012042
:101AD00004900320059002A90E48FEF74BFD4FF439
:101AE000806002900020039004900320059002A9DA
:101AF0000848FEF73FFD032211462520FEF766FF4A
:101B00002520FEF753FF06B010BD0000003801404D
:101B1000001002400008014070B504460D4616460C
:101B200094F8420020280BD105B10EB9012070BDF8
:101B30000020206332462946204600F01FFBF6E7CE
:101B40000220F4E700B5034603491868884201D132
:101B500000F08AFD00BD000000380140704700BF62
:101B6000FEE7000008B500BF0D48806940F0100096
:101B70000B4988610846806900F01000009000BFA2
:101B800000BF00BF0846806940F004008861084635
:101B9000806900F00400009000BF00BF08BD000095
:101BA0000010024000BFFEE700BFFEE770470000E4
:101BB00008B508490968C9084FF47A72B1FBF2F117
:101BC0004143009100BF00BF00994A1E00920029C6
:101BD000F9D108BD0C000020704710B5FEF776FE65
:101BE00010BD00B58FB0282105A8FEF71DFB1421FC
:101BF0006846FEF719FB01200590000406900020BE
:101C000007900120099002200C90C1030D914FF420
:101C1000E0110E9105A8FFF74FF808B1FEF7A7FBFA
:101C20000F20009002200190002002904FF480606D
:101C300003900020049002216846FEF719FF08B1C6
:101C4000FEF795FB0FB000BD7047000010B50248CD
:101C5000FFF781FA10BD00003400002010B50248E3
:101C6000FFF779FA10BD0000A000002010B502684F
:101C7000204B98420ED0204B98420BD0B0F1804FB1
:101C800008D01E4B984205D01D4B984202D01D4BE8
:101C9000984203D122F070024B681A43154B9842C8
:101CA0000ED0154B98420BD0B0F1804F08D0134B9B
:101CB000984205D0124B984202D0124B984203D161
:101CC00022F44072CB681A4322F080034C6943EA45
:101CD000040202608B68C3620B688362054B984202
:101CE00002D0054B984201D10B6903630123436184
:101CF00010BD0000002C01400034014000040040F1
:101D000000080040000C004030B501F01F05012420
:101D100004FA05F3046A9C430462046A01F01F0597
:101D200002FA05F52C43046230BD000030B5026AAA
:101D3000056A25F0010505624368846924F0700492
:101D400024F003040D682C4322F002028D682A431C
:101D5000104DA84200D103E00F4DA84206D100BFAC
:101D600022F00802CD682A4322F00402094DA8425D
:101D700002D0094DA84207D123F4807323F40073E5
:101D80004D692B438D692B43436084614D684563E6
:101D9000026230BD002C01400034014030B5026ABF
:101DA000056A25F0100505624368846924F4E0445F
:101DB00024F440740D6844EA052422F020028D6862
:101DC00042EA0512124DA84200D103E0114DA8428B
:101DD00007D100BF22F08002CD6842EA051222F04E
:101DE00040020B4DA84202D00A4DA84209D123F46B
:101DF000806323F400634D6943EA85038D6943EAF8
:101E00008503436084614D688563026230BD0000D4
:101E1000002C01400034014030B5026A056A25F407
:101E2000807505624368C46924F0700424F00304DB
:101E30000D682C4322F400728D6842EA0522124D8F
:101E4000A84200D103E0114DA84207D100BF22F4FF
:101E50000062CD6842EA052222F480620A4DA8425F
:101E600002D00A4DA84209D123F4805323F4005331
:101E70004D6943EA05138D6943EA05134360C46164
:101E80004D68C563026230BD002C01400034014042
:101E900030B5036A056A25F4805505624468C26955
:101EA00022F4E04222F440720D6842EA052223F453
:101EB00000538D6843EA0533084DA84202D0084D0F
:101EC000A84204D124F480444D6944EA8514446056
:101ED000C2614D680564036230BD0000002C014002
:101EE0000034014070B505466C6A0020E085E0844E
:101EF0002046FFF709FC70BD00BF00BF02680C322E
:101F000052E8002F22F4907102680C3242E800136C
:101F1000002BF3D100BF00BF00BF0268143252E8AB
:101F2000002F22F001010268143242E80013002B56
:101F3000F3D100BF016B01290ED100BF00BF0268C1
:101F40000C3252E8002F22F0100102680C3242E8F5
:101F50000013002BF3D100BF202180F84210002194
:101F60000163704710B504462068C06820F0400047
:101F70002168C860202084F841002046FFF7EEFD6C
:101F8000002010BDF8B5044694F84200222875D10F
:101F9000A068B0F5805F0CD1206950B90025A66A11
:101FA00020684068C0F308003080A06A801CA062EE
:101FB00015E0A56A0026A068B0F5805F03D0A06890
:101FC00028B9206918B920684068287004E02068A2
:101FD000406800F07F002870A06A401CA062E08D7D
:101FE000401E80B2E085002846D12068C06820F0FD
:101FF00020002168C8602068C06820F480702168D3
:10200000C8602068406920F00100216848612020F4
:1020100084F8420000206063206B012826D1002054
:10202000206300BF00BF21680C3151E8001F21F080
:10203000100021680C3141E80002002AF3D100BFF2
:102040002068006800F0100010280AD100BF0020AE
:10205000009020680068009020684068009000BFF1
:1020600000BFA18D2046FFF74EFB02E02046FFF7A0
:1020700069FD0020F8BD01E00020FBE70220F9E740
:1020800070B504462168096921F44051E2681143A2
:10209000226811612269A1681143626941EA02055F
:1020A0002168C96841F20C62914329432268D160DA
:1020B0002168496921F44071A26911432268516184
:1020C0002D4A2168914202D1FEF7AEFD01E0FEF7F4
:1020D0009BFD00EBC00101EB001162689200B1FBB7
:1020E000F2F100EBC00202EB001263689B00B2FB4E
:1020F000F3F26423B2FBF3F202EBC20303EB02122E
:10210000A1EB8201322202EB01116422B1FBF2F158
:1021100001F0F00100EBC00202EB001263689B00CB
:10212000B2FBF3F26423B2FBF3F201EB021200EB19
:10213000C00101EB001163689B00B1FBF3F100EB00
:10214000C00303EB00136668B600B3FBF6F3642626
:10215000B3FBF6F303EBC30606EB0313A1EB83011A
:10216000322303EB01116423B1FBF3F101F00F0102
:1021700011442268916070BD0038014010B50346DB
:1021800099629A85DA8500205864222083F84200FB
:10219000186928B11868C06840F480701C68E06055
:1021A0001868406940F001001C6860611868C068E8
:1021B00040F020001C68E060002010BD014691F84E
:1021C0004100212828D18868B0F5805F0BD10869CB
:1021D00048B90A6A1088C0F308000B685860086A9A
:1021E000801C086205E00B6A581C086218780B68AE
:1021F0005860C88C401E80B2C88458B90868C0684E
:1022000020F080000B68D8600868C06840F040008B
:102210000B68D860002070470220FCE710B5044826
:10222000FFF774FA012203490148FFF775FC10BD5E
:10223000BC0100201C00002000BFFEE7024800682F
:10224000C0F30220704700000CED00E010B500283C
:1022500004DB0A07130E054A135406E00A07140E9E
:10226000034A00F00F031B1FD45410BD00E400E02C
:1022700018ED00E000BF704710B5044654B90122C4
:1022800002210B48FEF716FB002204210848FEF746
:1022900011FB0BE0012C09D1002202210448FEF7BA
:1022A00009FB012204210248FEF704FB10BD0000D7
:1022B0000020014010B586B004460020184908618E
:1022C0001E20087600BF1748806940F480701549C9
:1022D00088610846806900F48070019000BF00BFEB
:1022E000022002900120039000200490032005901A
:1022F00002A90D48FEF73EF9042002900120039048
:10230000002004900320059002A90748FEF732F947
:102310000120FFF7B1FF204600F008F806B010BD1D
:1023200010010020001002400020014010B588B0CC
:1023300004464FF080401C490860472048606321F4
:102340001948C160002181604FF480418161FFF72D
:1023500050F860200190029400200490002201A90E
:102360001148FEF7C4FF042201A90F48FEF7BFFF82
:10237000082201A90C48FEF7BAFF0C2201A90A485D
:10238000FEF7B5FF00210848FFF70CF904210648C5
:10239000FFF708F908210448FFF704F90C21024867
:1023A000FFF700F908B010BD740100202DE9F041DD
:1023B00005460026002727484560406825490968EA
:1023C000401A4FF47A714843C0EB00108000214955
:1023D000097B90FBF1F8404600F0AAFD1D4988609A
:1023E0001D49087E00F0BCFD80461A4988684146B8
:1023F00000F0DCFC19490A780978491C174B197060
:10240000174941F82200184600780A2820D10020F8
:102410001946087009220021114800F0D5F802245D
:1024200008E00F4850F82410304600F051FC0646F2
:10243000601CC4B2082CF4DB0A49304600F0B6FC3C
:10244000074605480169384600F01EF80249086150
:10245000BDE8F081240000201001002018000020B9
:10246000E80000200000C04005480068406A0549B7
:102470000A684FF48031A2FB011240187047000037
:1024800034000020100000202DE9FC5F83460C463C
:10249000204600F0F1FB07464FF066320C4B00F08F
:1024A00003FA81468A46584600F0E6FB07464FF09D
:1024B0003332084B00F0F8F94A465346CDE90001A3
:1024C00000F04AF9054600F015F9BDE8FC9F000050
:1024D0006666E63F3333D33F00BF054A1268126891
:1024E000C2F38012002AF8D0C2B2024B1A607047C1
:1024F000BC01002004380140FEF7F4F9FFF771FB3E
:10250000FFF730FB3220FFF7D5FE4FF4E13000F04B
:102510008DF802A0FDF77CFE00BFFEE748656C6CFD
:102520006F20576F726C640D0A0000002DE9F05F98
:1025300004460E4692469846DDF828B0554608F106
:102540000100C7B2D1461DE054F8271054F8250009
:1025500000F01AFD0BD22846691CCDB254F8202099
:102560004846411C01F0FF0946F820200AE03846A1
:10257000791CCFB254F820204846411C01F0FF09D5
:1025800046F82020454501DC5F45DDDD0AE02846B0
:10259000691CCDB254F820204946481C00F0FF09C0
:1025A00046F821204545F2DD0AE03846791CCFB2D5
:1025B00054F820204846411C01F0FF0946F820202D
:1025C0005F45F2DDBDE8F09F2DE9F0418CB080461B
:1025D0000C4615460027282102A8FDF725FE0026F7
:1025E000AC4202D10CB0BDE8F0816019C7B23A46E6
:1025F00021464046FFF7E8FF781CC1B22A46404614
:10260000FFF7E2FF3B46224602A940460095FFF74E
:102610008DFF264606E002A850F8260048F826005E
:10262000701CC6B2AE42F6DD00BFDBE710B5044653
:102630000A480B4908600846446000218160C16077
:1026400001610C2141610021C1618161FFF7D0F975
:10265000012204490248FFF75FFA10BD003801402B
:10266000BC0100201C0000201F48008800F400402E
:1026700058BB1D48008800F4804070B11B480078AA
:102680000A2806D11848008840F4004016490880FE
:1026900029E000201449088025E0144800780D281E
:1026A00006D11148008840F480400F4908801AE0A4
:1026B0000E4800780A2805D00B480088C0F30D00AA
:1026C000C82803D30020084908800CE00748007898
:1026D00005490988C1F30D01054A50540248008894
:1026E000401C0149088070471E0000201C0000208B
:1026F0000402002021F00042A2F16052B2F5801FD6
:1027000001F0004328BFD2F17F6C0BD95FEA001CB7
:1027100043EAC20242EB507018BF704728BF20F056
:1027200001007047B2F5801FBCBF184670474FEAE2
:10273000410C1CF5001F02D2084600F09FBC70B58A
:1027400000F05CF900000089FFF7F6BF4FF0004091
:10275000A0F580007047000010B591EA030F48BF54
:1027600083F0004300F1A681841A71EB030C05D2BB
:10277000121943EB0C03001B61EB0C01DFF824E1A1
:102780004FEA1154A4EB135C1EEA430F18BF9EEAF4
:10279000445F73D023EA0E03DCF1200E21EA0451DA
:1027A00043F4801332D322FA0CFE10EB0E0023FA0E
:1027B0000CFE41EB0E01CCF1200E03FA0EFE10EBE5
:1027C0000E0051F10001B1F5801FCCF1200E32D284
:1027D00001EB045112FA0EF2BDE8104058BF7047E9
:1027E000401C38BF5FEA420218BF7047002814BF80
:1027F00020F0010041F100014FEA410313F5001FF1
:1028000038BF7047A1F1C04100F046B9012A43EB3F
:102810000302ACF1200CDCF11F0E32BF4FF0000EB2
:1028200023FA0CF310EB030041EB0451B4EB115FFE
:10283000D0D0A1EB045101F5801149085FEA3000C6
:1028400001EB04510ED350F1000038BF12FA0EFE16
:1028500008D1BDE81040C9E7401C38BF5FEA42021A
:10286000CAD1C3E7BDE810404FEA410313F5001F8A
:1028700038BF7047A1F1C04100F00EB99EEA445F35
:1028800008D011EA5E0FBDE8104004BF01F000411E
:1028900000207047BDE8104070B500F0AFF800BFF1
:1028A00064FBBE3E0000E0FFDFF848C170B51CEAE3
:1028B000111E1EBF1CEA13159EEA0C0F95EA0C0FA1
:1028C00000F06F8081EA030423EA4C134EEAD47EC1
:1028D00021EA4C1141F4801143F48013AE44A1FB72
:1028E000024CA0FB0365AEF17F7E361955EB0C055B
:1028F000A1FB034C4CF10003A0FB021C16EB0C06E1
:10290000654153F10003094218BF46F0010613F474
:10291000007F0BD14FEA03314FEA0530340341EA1F
:10292000155140EA16506FF003020AE04FEAC32146
:102930004FEAC520F40241EA555140EA56506FF083
:10294000020202EB2E4201EB025585EACE710AD05B
:102950005FEA440C18BF24F0004450F1000041F13C
:10296000000120EAD47040F2FE7C624500D270BDC6
:10297000A84214BF4FF080444FF04044002E08BFDF
:102980000024BEF1806FA8BFA1F1C041BDE8704036
:1029900080F282804FF0000001F1C04101F000415F
:1029A00070479EEA0C0F0CEA131518BF95EA0C0F3E
:1029B00006D04FF0000081EA030E0EF0004170BD1A
:1029C00000F01CF88900013E00F007B800F009B8DB
:1029D0004FEA430C5FEA5C5C08D081EA030100F037
:1029E0005BB84FEA410C5FEA5C5CF6D14FF0000047
:1029F000014970470000FF070000F87F0EF1020E4A
:102A00002EF0030E5EF8046B364205D4012A43EB28
:102A1000030515F5001F12D8012841EB010C1CF528
:102A2000001F0CD80ED14FEAD17C15F5001F0CEB1E
:102A30004C0C0CF1020C08BF4CEBD37C04E04FF0C3
:102A4000080C01E04FEAD37C0CEB4C0526FA05F6A6
:102A500006F00706B6F1040C06D20EEB860CBDE8B4
:102A600070404CF0010C6047DFE80CF0090B0202EB
:102A70004FF000414FF00000A1F5002170BD194654
:102A80001046012851EB010418BFD4F5001484BF8F
:102A9000002001F0004170BD0808A0F500114FEAC8
:102AA0003101704710B591EA030F48BF83F000432E
:102AB0003FF55AAE841A71EB030C07D212198CF051
:102AC000004C43EB0C03001B61EB0C01DFF8A4E1AD
:102AD0004FEA1154A4EB135C1EEA430F18BF9EEAA1
:102AE000445F00F0B08023EA6E03524221EA0451B1
:102AF000C3EB6E0338BF5B1EDCF1200E25D322FA38
:102B00000CFE10EB0E0043FA0CFE41EB0E01CCF173
:102B1000200E03FA0EFE10EB0E0051F10001CCF175
:102B2000200E29D412FA0EF201EB0451BDE8104038
:102B300058BF7047401C1CBFB2F1004F70470028BF
:102B40000CBF491C20F00100704712EB020E43EB52
:102B5000030218BF4FF0010E4EEA4202ACF1200C06
:102B6000DCF11E0E54D943FA0CFE10EB0E0051F1AD
:102B7000FF31CCF11E0ED5D50EF1010E12FA0EFE6C
:102B8000404141EB010101EB445C5FEA5C5C10D920
:102B900010EBDE7001EB045138BFBEF1004FBDE811
:102BA000104018BF704700280CBF491C20F00100DE
:102BB000704730D24FEAD42C11F5001124F4006490
:102BC0001BD0B1FA81F20B3AA41AA41ED2F1200351
:102BD000914030FA03F31943904001EBCC71002C83
:102BE00001EB0451BDE81040A8BF704701F1C0419E
:102BF0004FF0000001F000417047B0FA80F310FA86
:102C000003F100D110BDE41A173C4805C90AE4E7F6
:102C100001EB045110BD491001EB0451BDE8104017
:102C20004FEA300002E04FF0000170474A0008BF51
:102C30000042F8D0B2F5001F28BF704701F00041F4
:102C40004FF0000070479EEA445F07D011EA5E0F24
:102C5000BDE8104004BF002100207047BDE81040CF
:102C600070B5FFF7CBFE00BF40DFF63E83F00041BA
:102C7000104670470000E0FF43004FEAD30C4FEAD4
:102C80003C0C43401FBF40070CF1605113F0FE4F56
:102C900070471CF0006F03D100200CF0004170471A
:102CA0000CF0004343EA507010B540EACC0000F04D
:102CB0009FF900BF000000924FEA0001FFF7ECBE51
:102CC0004FF000414FF00000A1F5002170470000D7
:102CD00090EA010F48BF81F0004100F1DC81421A07
:102CE0003CBF801A89184FEAD0524FF07F4C1CEA43
:102CF000410FA2EBD15318BF9CEA026F00F03B805A
:102D00004FF0004C4CEA00204CEA012121FA03FC70
:102D100010EB0C0C1ED202F1FF325FEA1C2040EBDC
:102D2000C25038BF70471CF07F0F4FEA400C18BFED
:102D3000BCF17F4F38BF7047C3F12003994008BFF3
:102D400020F00100BCF17F4F38BF7047A0F1C040B8
:102D500000F094B94FEA3C00000A40EBC25028BF93
:102D60001CF0FF0F4FEA400CE6D018BFBCF17F4FBC
:102D700038BF7047EAE79CEA026F05D010EA5C0FA3
:102D800008BF00F00040704710B500F031F900BFF7
:102D900064FBBE3E401058BFC0F14040491058BFD0
:102DA000C1F140418142EFF3008070474FF47F0C46
:102DB0001CEAD0121EBF1CEAD11392EA0C0F93EA50
:102DC0000C0F00F0858090EA010F48BF42F480723A
:102DD00040F4000C41F400002CF07F4120F07F40D3
:102DE00000B58142A2EB03020FF2081CACEB504E7F
:102DF000C0F100009EF800E04FEA4E0E00FB0EFC12
:102E000038BF49004FEA2C1C02F5FA020CFB0EF306
:102E10004FEACE1E4FEA112C4FEAC1210EEB635E42
:102E200042EB22420EFB0CFC4FEA1C5300FB031149
:102E30004FEA112C4FEA01310EFB0CFC4FEADC4C3F
:102E400000FB0C11C14228BF09184CEB03335DF89D
:102E500004EB10EB410143EBC250B2F57C0F38BFDD
:102E6000704729D512F0F00F1CBF00F1C04000F0F0
:102E700000407047008182838485868788898B8C97
:102E80008D8E8F919293959697999A9C9D9FA0A2D3
:102E9000A3A5A7A8AAACAEB0B2B3B5B7B9BCBEC023
:102EA000C2C5C7C9CCCED1D4D7D9DCDFE2E6E9ECC4
:102EB000F0F3F7FAFE0000004FEA400C0CF1807CC2
:102EC000BCF17E4F28BF7047B0F1C04000F0D6B8CB
:102ED00090EA010F0CEAD11348BF42F480726245B8
:102EE00038BF634507D213F47F0F16D080EA010084
:102EF00000F00040704710B500F07AF8097EFC3E03
:102F000000F005B880EA010000F00040704780EA58
:102F1000010000F0004000F0B1B812F47F0F04BFD0
:102F20000248704780EA010000F0A8B80000C07FA6
:102F300010F0004148BF4042B0FA80F310FA03F2AB
:102F4000C3F19D030BD051EAC35101EB122053068C
:102F500038BF704700F1010008BF20F00100704742
:102F6000B0FA80F310FA03F2C3F19D030AD0D90539
:102F700001EB1220530638BF704700F1010008BF73
:102F800020F001007047000050EA010C00F11380AE
:102F90001CF5000F58BFBCF5000F01D488427047E4
:102FA00007D710F5000F58BF11F5000F15D4884250
:102FB0007047894270471CF5000F04D5BCF5000F1F
:102FC000F7D5814270474FF0807C1CEB400F38BF33
:102FD0001CEB410F01D28142704710B500F008F898
:102FE000922449004FF000504FF08051FFF7D2BEBD
:102FF0000EF1020E2EF0030E5EF8044B244204D4B0
:103000004FEA4102B2F17F4F11D84FEA4003B3F1CA
:103010007F4F0CD80ED14FEAD07CB2F17F4F0CEB32
:103020004C0C0CF1020C08BF4CEBD17C04E04FF0CF
:10303000080C01E04FEAD17C0CEB4C0324FA03F4BA
:1030400004F00704B4F1040C06D20EEB840CBDE8C6
:1030500010404CF0010C6047DFE80CF0070802025A
:103060004FF00040A0F5800010BD0846420018BF98
:10307000D2F1807288BF00F0004010BDFF2141EA0C
:10308000D050C0057047000090EA010F48BF81F0A2
:1030900000413FF524AE421A04D882F00042A0EB72
:1030A000020011444FEAD0524FF07F4C1CEA410F0E
:1030B000A2EBD15318BF9CEA026F4AD04FF0004CEC
:1030C0004CEA00204CEA012121FA03FCB0EB0C0C85
:1030D0000FD412F0FE0F36D05FEA4C001DD500125F
:1030E00040EBC25038BF70471CF03F0F18BF70470D
:1030F0000BE0A2F101025FEA1C2040EBC25038BF96
:1031000070471CF07F0F18BF7047C3F12003994030
:1031100014BF401E20F00100704780084FEA1223C0
:1031200008BF7047B0FA80FCA2EB0C02CCF1280C6F
:1031300060FA0CF093EA122F04BF00EBC250704704
:103140004FEAC3707047130A5FEADC1008BF70478C
:10315000F6E79CEA026F04D010EA5C0F08BF00207B
:10316000704710B5FFF744FF40DFF63E81F00040A6
:10317000704702030405060708090A0B0C0D0E0F21
:103180001010010200000000000000000102030412
:10319000060708090000000001020304BC31000812
:1031A00000000020240000006C010008E03100084D
:1031B000240000200C090000880100080000000025
:1031C00010000000010000000024F40000000000D6
:1031D00000000000000000000000000000000000EF
:0400000508000131BD
:00000001FF
