:020000040800F2
:10000000A8070020CD01000811170008C716000836
:100010000D170008C9020008E51A000800000000DA
:100020000000000000000000000000004117000870
:10003000CD02000800000000151700084317000853
:10004000E7010008E7010008E7010008E7010008F0
:10005000E7010008E7010008E7010008E7010008E0
:10006000E7010008E7010008E7010008E7010008D0
:10007000E7010008E7010008E7010008E7010008C0
:10008000E7010008E7010008E7010008E7010008B0
:10009000E7010008E7010008E7010008E7010008A0
:1000A000E7010008E7010008E7010008E701000890
:1000B000E7010008E7010008E7010008E701000880
:1000C000E7010008E7010008E7010008E701000870
:1000D000E7010008C91A0008E7010008E701000865
:1000E000E7010008E7010008E7010008E701000850
:1000F000E7010008E7010008E7010008E701000840
:10010000E7010008E7010008E7010008E70100082F
:10011000E7010008E7010008B5170008E70100083B
:10012000E7010008E7010008E7010008E70100080F
:1001300000F002F800F03AF80AA090E8000C8244BF
:100140008344AAF10107DA4501D100F02FF8AFF29C
:10015000090EBAE80F0013F0010F18BFFB1A43F0A5
:1001600001031847901C0000B01C0000103A24BF87
:1001700078C878C1FAD8520724BF30C830C144BF0C
:1001800004680C607047000000230024002500264E
:10019000103A28BF78C1FBD8520728BF30C148BFEA
:1001A0000B6070471FB51FBD10B510BD00F05AF8A9
:1001B0001146FFF7F7FF01F0C7FD00F078F803B430
:1001C000FFF7F2FF03BC01F0ABFC000009488047D9
:1001D00009480047FEE7FEE7FEE7FEE7FEE7FEE729
:1001E000FEE7FEE7FEE7FEE704480549054A064B41
:1001F00070470000B117000831010008A801002075
:10020000A8070020A8030020A803002070474FF093
:10021000000200B5134694469646203922BFA0E856
:100220000C50A0E80C50B1F12001BFF4F7AF090762
:1002300028BFA0E80C5048BF0CC05DF804EB890053
:1002400028BF40F8042B08BF704748BF20F8022B96
:1002500011F0804F18BF00F8012B704770477047AE
:1002600070477047754600F02BF8AE4605006946AA
:10027000534620F00700854618B020B5FFF7B4FFBD
:10028000BDE820404FF000064FF000074FF0000897
:100290004FF0000B21F00701AC46ACE8C009ACE818
:1002A000C009ACE8C009ACE8C0098D46704710B57C
:1002B0000446AFF300802046BDE81040FFF77FBF43
:1002C000004870474801002000BFFEE7704772B643
:1002D00000BFFEE70146002291F82100022808D065
:1002E0000420886300BF002081F8200000BF0120A7
:1002F00070470868006820F00E000B6818600868F6
:10030000006820F001000B68186091F8403001206F
:100310009840CB6B5860012081F8210000BF00207D
:1003200081F8200000BF1046E2E7000070B50446E7
:10033000002594F82100022803D00420A0630125A1
:10034000C1E02068006820F00E0021680860206885
:10035000006820F00100216808605C49206888423C
:1003600052D95A4978392068884201D1012047E0A2
:10037000564964392068884201D1102040E0534931
:1003800050392068884201D1801539E04F493C3905
:100390002068884201D1801432E04C492839206815
:1003A000884202D14FF480302AE04849143920684D
:1003B000884202D14FF4801022E0444920688842EC
:1003C00001D140041CE042492068884201D101204B
:1003D00016E03F4914312068884201D110200FE017
:1003E0003B4928312068884201D1801508E038490E
:1003F0003C312068884201D1801401E04FF4803004
:100400003349091F086051E0304978392068884233
:1004100001D1012047E02D4964392068884201D18B
:10042000102040E0294950392068884201D18015C8
:1004300039E026493C392068884201D1801432E0F5
:10044000224928392068884202D14FF480302AE0BE
:100450001E4914392068884202D14FF4801022E0EE
:100460001A492068884201D140041CE018492068DC
:10047000884201D1012016E01549143120688842D4
:1004800001D110200FE0124928312068884201D1A3
:10049000801508E00E493C312068884201D1801463
:1004A00001E04FF48030094980394860012084F828
:1004B000210000BF002084F8200000BF606B10B155
:1004C0002046616B8847284670BD000080000240CE
:1004D0000804024070B5044600F0BEF90646254601
:1004E000681C10B104480078054400BF00F0B4F95E
:1004F000801BA842FAD370BD080000202DE9F84700
:10050000024600239C467BE14FF0010808FA03F401
:10051000D1F8008008EA0400A0427DD1DFF8F4A2FF
:10052000D1F80480A8EB0A09D0453AD014DCB8F120
:10053000030F50D009DCB8F1000F31D0B8F1010F32
:100540001CD0B8F1020F49D120E0B8F1110F18D03A
:10055000B8F1120F42D11EE0B9F5881F25D006DC94
:10056000B9F5803F20D0B9F5801F37D11AE0B9F531
:10057000001F18D0B9F5041F30D117E0D1F80CC016
:100580002DE0D1F80C8008F1040C28E0D1F80C80A3
:1005900008F1080C23E0D1F80C8008F10C0C1EE0E7
:1005A00000BF00BF00BF00BF00BF00BFD1F8088080
:1005B000B8F1000F02D14FF0040C0BE0D1F8088025
:1005C000B8F1010F03D14FF0080C146102E04FF0B5
:1005D000080C546103E04FF0000C00E000BF00BFC6
:1005E000FF2801D8904601E002F104084646FF28A2
:1005F00002D84FEA830803E0A3F108084FEA88080D
:100600004746D6F800804FF00F0909FA07F928EAA3
:1006100009080CFA07F900E07AE048EA0908C6F888
:100620000080D1F8048008F08058B8F1805F6FD165
:1006300000BFDFF8E481D8F8188048F00108DFF83F
:10064000D891C9F81880C846D8F8188008F0010871
:10065000CDF8008000BF00BF4FEAB9384FEA9309D8
:1006600058F829504FEA83784FEA18794FF00F086D
:1006700008FA09F825EA0805DFF8A081424502D109
:100680004FF0000824E0DFF89881424502D14FF096
:1006900001081DE0DFF88C81424502D14FF00208CD
:1006A00016E0DFF88481424502D14FF003080FE0E5
:1006B000DFF87881424502D14FF0040808E0DFF806
:1006C0007081424502D14FF0050801E04FF0060865
:1006D0004FEA83794FEA197908FA09F848EA0505DB
:1006E000DFF850814FEA930948F82950D1F8048087
:1006F00008F48018B8F5801F0BD1DFF83C81D8F8DA
:10070000008048EA0008DFF83091C9F800800AE06C
:1007100075E0DFF82481D8F8008028EA0008DFF8C7
:100720001891C9F80080D1F8048008F40018B8F5D1
:10073000001F0ED1DFF8008108F10408D8F800800E
:1007400048EA0008DFF8F09009F10409C9F80080D0
:100750000DE0DFF8E48008F10408D8F8008028EA0A
:100760000008DFF8D49009F10409C9F80080D1F835
:10077000048008F40038B8F5003F0ED1DFF8B880E7
:10078000A8F10408D8F8008048EA0008DFF8A8902B
:10079000A9F10409C9F800800DE0DFF89C80A8F1F8
:1007A0000408D8F8008028EA0008DFF88C90A9F146
:1007B0000409C9F80080D1F8048008F48038B8F53D
:1007C000803F0ED1DFF87080A8F10808D8F80080CB
:1007D00048EA0008DFF86090A9F10809C9F800802C
:1007E0000DE0DFF85480A8F10808D8F8008028EA66
:1007F0000008DFF84490A9F10809C9F800805B1CE3
:10080000D1F8008028FA03F8B8F1000F7FF47CAE2D
:10081000BDE8F887000011100010024000080140F8
:10082000000C01400010014000140140001801407C
:10083000001C014008000140080401400246936882
:100840000B400BB1012000E0002070470AB10161AC
:1008500001E00B0403617047014800687047000025
:100860000000002003480068034909780844014952
:1008700008607047000000200800002010B50848FC
:10088000006840F0100006490860032000F0A8F856
:100890000F2000F007F800F02BF8002010BD00003A
:1008A0000020024070B504460E4800784FF47A717B
:1008B000B1FBF0F00C490968B1FBF0F5284600F0F7
:1008C000D3FB08B1012070BD102C07D200222146B5
:1008D000501E00F047F80548046001E00120F2E7EF
:1008E0000020F0E7080000200C0000200400002099
:1008F00008B500BF1148806940F001000F498861C8
:100900000846806900F00100009000BF00BF00BFF2
:100910000846C06940F08050C8610846C06900F0D0
:100920008050009000BF00BF00BF0549486820F01C
:10093000E06040F00070486000BF08BD0010024059
:100940000000014001460846002809DB00F01F03B3
:1009500001229A4043099B0003F1E023C3F80021E0
:1009600000BF70472DE9F05F80460D461646002710
:1009700001F0BAF8074639462A46334601F0070027
:10098000C0F1070ABAF1040F02D94FF0040A01E0DE
:10099000C0F1070AD14600F1040ABAF1070F02D2EA
:1009A0004FF0000A01E0A0F1030AD4464FF0010A1B
:1009B0000AFA09FAAAF1010A0AEA020A0AFA0CFA80
:1009C0004FF0010B0BFA0CFBABF1010B0BEA030B25
:1009D0004AEA0B042146404601F08EF8BDE8F09F3C
:1009E00000BF00F00702064B19684FF6FF031940DD
:1009F000044B0B4343EA0221014B196000BF7047CF
:100A00000CED00E00000FA0570B504460D460CB987
:100A1000012070BD5A48006800F00700A8420ED2BD
:100A20005748006820F007002843554908600846E9
:100A3000006800F00700A84201D00120E9E7207813
:100A400000F0020002281DD1207800F004000428E4
:100A500005D14C48406840F4E0604A49486020783D
:100A600000F00800082805D14648406840F460506E
:100A7000444948604348406820F0F000A1680843BA
:100A800040494860207800F0010078B36068012890
:100A900006D13C48006800F4003090B90120B8E766
:100AA0006068022806D13748006800F0007040B93D
:100AB0000120AEE73348006800F0020008B90120C9
:100AC000A7E73048406820F00300616808432D49DB
:100AD0004860FFF7C1FE064609E0FFF7BDFE801B38
:100AE00041F28831884202D9032092E707E0254885
:100AF000406800F00C006168B0EB810FEDD1204838
:100B0000006800F00700A8420ED91D48006820F0D8
:100B1000070028431A4908600846006800F00700EB
:100B2000A84201D0012074E7207800F004000428D6
:100B300007D11448406820F4E060E1680843114997
:100B40004860207800F00800082808D10D48406867
:100B500020F46050216940EAC1000A49486000F071
:100B600019F808494968C1F30311074A515CC840A4
:100B70000649086006480068FFF794FE002048E731
:100B80000020024000100240DA1D00080C00002086
:100B90000400002070B50021002200240023002062
:100BA000134D696801F00C05F5B1042D02D0082D34
:100BB00019D101E00F4819E00F4DC1F38346AB5D39
:100BC00001F4803555B10A4D6D68C5F340450B4EB3
:100BD000725D084D5D43B5FBF2F402E0084D03FB86
:100BE00005F4204602E000BF024800BF00BF70BD10
:100BF0000010024000127A00C81D0008D81D00082D
:100C000000093D00F8B504460CB90120F8BD207874
:100C100000F00100002878D0F848406800F00C008F
:100C200004280CD0F548406800F00C00082811D1C9
:100C3000F248406800F48030B0F5803F0AD1EF48B8
:100C4000006800F4003000285FD0606800285CD1A4
:100C50000120DBE700BF6068B0F5803F06D1E748C0
:100C6000006840F48030E549086028E0606858B9C1
:100C7000E248006820F48030E049086008460068D7
:100C800020F4802008601AE06068B0F5A02F0BD136
:100C9000DA48006840F48020D849086008460068B7
:100CA00040F4803008600AE0D448006820F48030C6
:100CB000D24908600846006820F48020086000BF20
:100CC000606888B1FFF7C8FD054606E0FFF7C4FD80
:100CD000401B642801D9032098E7C848006800F445
:100CE00000300028F2D010E0FFF7B6FD054606E020
:100CF000FFF7B2FD401B642801D9032086E7BF48F7
:100D0000006800F400300028F2D1207800F00200E2
:100D1000022857D1B948406800F00C0050B1B748DC
:100D2000406800F00C00082818D1B448406800F46E
:100D3000803098B9B148006800F0020020B1206905
:100D4000012801D0012061E7AC48006820F0F800DC
:100D5000616940EAC100A949086033E02069E8B14F
:100D60000120A7490860FFF777FD054606E0FFF779
:100D700073FD401B022801D9032047E79F48006804
:100D800000F002000028F2D09C48006820F0F80033
:100D9000616940EAC1009949086013E00020984960
:100DA0000860FFF759FD054606E0FFF755FD401BBB
:100DB000022801D9032029E79048006800F00200CA
:100DC0000028F2D1207800F0080008282DD1A06971
:100DD000B8B101208B490860FFF73EFD054606E0EB
:100DE000FFF73AFD401B022801D903200EE7834894
:100DF000406A00F002000028F2D0012000F08CFCD4
:100E000013E000207F490860FFF726FD054606E055
:100E1000FFF722FD401B022801D90320F6E67748A0
:100E2000406A00F002000028F2D1207800F00400AF
:100E3000042873D100277148C06900F0805070B950
:100E400000BF6E48C06940F080506C49C8610846D8
:100E5000C06900F08050009000BF00BF01276A48C1
:100E6000006800F48070B0B96748006840F4807092
:100E700065490860FFF7F0FC054606E0FFF7ECFC6B
:100E8000401B642801D90320C0E65F48006800F4D5
:100E900080700028F2D000BFE068012806D15748D2
:100EA000006A40F001005549086227E0E06858B93F
:100EB0005248006A20F00100504908620846006A62
:100EC00020F00400086219E0E06805280BD14B48C7
:100ED000006A40F00400494908620846006A40F090
:100EE000010008620AE04548006A20F00100434919
:100EF00008620846006A20F00400086200BFE0684B
:100F0000A0B1FFF7A9FC054609E0FFF7A5FC401BCF
:100F100041F28831884202D9032077E622E037483F
:100F2000006A00F002000028EFD012E0FFF794FC06
:100F3000054608E0FFF790FC401B41F288318842EB
:100F400001D9032062E62D48006A00F00200002863
:100F5000F0D1012F05D12948C06920F080502749E0
:100F6000C86100BFE069C8B32448406800F00C00C5
:100F7000082860D0E069022848D10020204908668E
:100F8000FFF76AFC054606E0FFF766FC401B0228F7
:100F900001D903203AE61948006800F000700028E3
:100FA000F2D1206AB0F5803F07D11448406820F4A0
:100FB0000030A168084311494860D4E9080108439A
:100FC0000E49496821F4741108430C494860012016
:100FD0000B490866FFF740FC054607E03DE0FFF7D8
:100FE0003BFC401B022801D903200FE603480068A0
:100FF00000F000700028F2D02FE000000010024046
:101000000000424280044242007000400020144927
:101010000866FFF721FC054606E0FFF71DFC401BB4
:10102000022801D90320F1E50E48006800F00070A5
:101030000028F2D111E0E069012800D1E6E5094875
:10104000466806F48031206A814204D106F47011AA
:10105000606A814201D00120D8E50020D6E5000079
:10106000000042420010024070B504462546681E4A
:10107000B0F1807F01D301200FE0681E4FF0E02126
:1010800048610F214FF0FF3000F036FD00204FF097
:10109000E021886107200861002070BD704770471B
:1010A00010B504460CB9012010BD94F83D0028B9D4
:1010B000002084F83C00204600F026F8022084F846
:1010C0003D00211D206800F093FB012084F84600BC
:1010D00000BF84F83E0001213F200155402001550A
:1010E0004120015500BF00BF012084F84200432089
:1010F0000155442001554520015500BF012084F8C9
:101100003D000020D0E7000038B504460D492068B6
:10111000884215D100BF0C48C06940F010000A4950
:10112000C8610846C06900F01000009000BF00BF11
:10113000022203213620FFF715FC3620FFF702FCC0
:1011400038BD00000010004000100240014691F838
:101150003D00012801D001207047022081F83D00A8
:101160000868C06840F001000B68D860164B08683A
:10117000984213D0154B086898420FD00868B0F118
:10118000804F0BD0124B0868984207D0114B08686B
:10119000984203D0104B086898420CD108688068C8
:1011A00000F00702062A0CD00868006840F0010031
:1011B0000B68186005E00868006840F001000B68E3
:1011C00018600020C8E70000002C014000340140F6
:1011D0000004004000080040000C0040704710B5BB
:1011E000044620680069C0F34000D8B12068C06898
:1011F000C0F34000B0B16FF0020021680861012027
:1012000020772068806900F0030018B12046FFF7BE
:10121000E5FF05E0204600F0ADF8204600F0ABF811
:101220000020207720680069C0F38000D8B12068D2
:10123000C068C0F38000B0B16FF00400216808619D
:10124000022020772068806900F4407018B12046A1
:10125000FFF7C4FF05E0204600F08CF8204600F0C0
:101260008AF80020207720680069C0F3C000D8B158
:101270002068C068C0F3C000B0B16FF008002168FA
:101280000861042020772068C06900F0030018B1CD
:101290002046FFF7A3FF05E0204600F06BF820464C
:1012A00000F069F80020207720680069C0F3001082
:1012B000D8B12068C068C0F30010B0B16FF0100062
:1012C00021680861082020772068C06900F4407018
:1012D00018B12046FFF782FF05E0204600F04AF8EB
:1012E000204600F048F8002020772068006900F0D0
:1012F000010058B12068C06800F0010030B16FF003
:10130000010021680861204600F036F82068006975
:10131000C0F3C01058B12068C068C0F3C01030B12D
:101320006FF08000216808612046FFF7B7FE206853
:101330000069C0F3801058B12068C068C0F3801005
:1013400030B16FF0400021680861204600F022F8BB
:1013500020680069C0F3401058B12068C068C0F32D
:10136000401030B16FF02000216808612046FFF77F
:1013700096FE10BD70477047044A0168914204D13F
:1013800003490968491C024A116070470010004077
:101390001800002070477047704700002DE9F84F93
:1013A0000446206805682068C668206847694FF0D1
:1013B0000009CA4605F00F09B9F1000F0AD105F07E
:1013C000200038B106F0200020B1204600F0AEFA2F
:1013D000BDE8F88FB9F1000F7BD007F0010018B914
:1013E00006F49070002874D005F0010030B106F4C6
:1013F000807018B1606C40F00100606405F004007A
:1014000030B107F0010018B1606C40F00200606478
:1014100005F0020030B107F0010018B1606C40F037
:101420000400606405F0080048B106F0200010B91F
:1014300007F0010018B1606C40F008006064606C57
:10144000002845D005F0200028B106F0200010B19A
:10145000204600F06BFA20684069C0F3801A606C87
:1014600000F0080010B9BAF1000F2CD0204600F0AF
:1014700017FA2068406900F0400000B300BF00BFC9
:101480002168143151E8001F21F040002168143117
:1014900041E80002002AF3D100BFE06B50B1774869
:1014A000E16B4863E06BFEF741FF88B1E06B416B95
:1014B00088470DE02046FFF76FFF09E009E020466E
:1014C000FFF76AFF04E02046FFF766FF0020606434
:1014D0007EE7206B012877D105F01000002873D03B
:1014E00006F010000028FAD000BF0020009020680D
:1014F0000068009020684068009000BF00BF20682E
:10150000406900F0400000285FD0E06B0068406850
:101510001FFA80F8B8F1000F55D0A08D404552DD7C
:10152000A4F82E80E06B8069202843D000BF00BF64
:1015300021680C3151E8001F21F4807021680C31C2
:1015400041E80002002AF3D100BF00BF00BF2168BC
:10155000143151E8001F21F001002168143141E8E5
:101560000002002AF3D100BF00BF00BF2168143180
:1015700051E8001F21F040002168143141E80002C9
:10158000002AF3D100BF202084F84200002020630D
:1015900000BF00BF21680C3151E8001F21F010008E
:1015A00021680C3141E80002002AF3D100BFE06B52
:1015B000FEF790FE02206063A08DE28D801A81B25A
:1015C0002046FFF7E8FE03E742E0A08DE18D401AD8
:1015D0001FFA80F8E08DD0B3B8F1000F37D000BF0C
:1015E00000BF21680C3151E8001F21F49070216880
:1015F0000C3141E80002002AF3D100BF00BF00BF58
:101600002168143151E8001F21F0010021681431D4
:1016100041E80002002AF3D100BF202084F84200F4
:101620000020206300BF00BF21680C3151E8001F7B
:1016300021F0100021680C3141E80002002AF3D1AA
:1016400000BF0220606341462046FFF7A4FEBFE6CC
:1016500005F0800030B106F0800018B1204600F09F
:1016600003FAB5E605F0400030B106F0400018B1CD
:10167000204600F04BF9ABE600BFA9E68D18000844
:1016800070B504460D46164694F8420020280BD14A
:1016900005B10EB9012070BD0020206332462946F5
:1016A000204600F0C1F9F6E70220F4E7034A01689A
:1016B000914202D10121024A117070470038014065
:1016C00015000020704700BFFEE7000008B500BF0E
:1016D0000D48806940F010000B4988610846806918
:1016E00000F01000009000BF00BF00BF08468069F6
:1016F00040F0040088610846806900F00400009012
:1017000000BF00BF08BD00000010024000BFFEE7A0
:1017100000BFFEE77047000008B508490968C9081E
:101720004FF47A72B1FBF2F14143009100BF00BF68
:1017300000994A1E00920029F9D108BD0C00002032
:10174000704710B5FFF78EF810BD00B58FB0282197
:1017500005A8FEF75CFD14216846FEF758FD012040
:1017600005900004069000200790012009900220B7
:101770000C90C1030D914FF4E0110E9105A8FFF7F5
:1017800041FA08B1FEF7A3FD0F200090022001905E
:10179000002002904FF4806003900020049002210A
:1017A0006846FFF731F908B1FEF791FD0FB000BDB3
:1017B0007047000010B50248FFF711FD10BD000092
:1017C0000001002070B505460C460748074908602F
:1017D0000846446000218160C560FFF761FC034852
:1017E000FFF7B4FC70BD00000010004000010020B5
:1017F00010B50268204B98420ED0204B98420BD077
:10180000B0F1804F08D01E4B984205D01D4B984236
:1018100002D01D4B984203D122F070024B681A434C
:10182000154B98420ED0154B98420BD0B0F1804F1B
:1018300008D0134B984205D0124B984202D0124B5D
:10184000984203D122F44072CB681A4322F08003FD
:101850004C6943EA040202608B68C3620B688362CE
:10186000054B984202D0054B984201D10B690363A6
:101870000123436110BD0000002C014000340140F1
:101880000004004000080040000C004070B5054610
:101890006C6A0020E085E0842046FFF77DFD70BD86
:1018A00000BF00BF02680C3252E8002F22F4907192
:1018B00002680C3242E80013002BF3D100BF00BFD6
:1018C00000BF0268143252E8002F22F001010268C2
:1018D000143242E80013002BF3D100BF016B012941
:1018E0000ED100BF00BF02680C3252E8002F22F078
:1018F000100102680C3242E80013002BF3D100BF44
:10190000202180F8421000210163704710B5044681
:101910002068C06820F040002168C860202084F85A
:1019200041002046FFF7CEFE002010BDF8B504466A
:1019300094F84200222875D1A068B0F5805F0CD1E0
:10194000206950B90025A66A20684068C0F30800E5
:101950003080A06A801CA06215E0A56A0026A068FD
:10196000B0F5805F03D0A06828B9206918B9206855
:101970004068287004E02068406800F07F0028700C
:10198000A06A401CA062E08D401E80B2E085002865
:1019900046D12068C06820F020002168C860206817
:1019A000C06820F480702168C8602068406920F019
:1019B000010021684861202084F842000020606313
:1019C000206B012826D10020206300BF00BF2168C2
:1019D0000C3151E8001F21F0100021680C3141E862
:1019E0000002002AF3D100BF2068006800F0100058
:1019F00010280AD100BF00200090206800680090E5
:101A000020684068009000BF00BFA18D2046FFF70E
:101A1000C2FC02E02046FFF749FE0020F8BD01E0CD
:101A20000020FBE70220F9E710B5034699629A858A
:101A3000DA8500205864222083F84200186928B112
:101A40001868C06840F480701C68E06018684069DD
:101A500040F001001C6860611868C06840F0200018
:101A60001C68E060002010BD014691F8410021286B
:101A700028D18868B0F5805F0BD1086948B90A6A37
:101A80001088C0F308000B685860086A801C086260
:101A900005E00B6A581C086218780B685860C88CFF
:101AA000401E80B2C88458B90868C06820F0800021
:101AB0000B68D8600868C06840F040000B68D860C8
:101AC000002070470220FCE710B50448FFF766FCD1
:101AD000012203490148FFF7D3FD10BDB8000020E3
:101AE0001400002000BFFEE702480068C0F3022097
:101AF000704700000CED00E010B5002804DB0A0779
:101B0000130E054A135406E00A07140E034A00F0A8
:101B10000F031B1FD45410BD00E400E018ED00E0DB
:101B200000BF70470278012A03D10A68521C0A607C
:101B300004E0027812B90A68521E0A600A68632A31
:101B400002D30022027003E00A680AB9012202707F
:101B5000024B0A681B689A63704700002800002047
:101B600001480068704700001800002010B50121EE
:101B70000948FEF763FE012800D10224102107481E
:101B8000FEF75CFE00B9002408210448FEF756FE6B
:101B900000B90124204610BD000801400018014092
:101BA00000B585B000BF2048806940F004001E49A0
:101BB00088610846806900F00400009000BF00BF03
:101BC00000BF0846806940F040008861084680698F
:101BD00000F04000009000BF00BF012001900020F5
:101BE0000290022003900320049001A90F48FEF701
:101BF00085FC10200190002002900120039003201A
:101C0000049001A90A48FEF779FC08200190002001
:101C10000290012003900320049001A90448FEF7DC
:101C20006DFC05B000BD000000100240000801403E
:101C30000018014070B500250624FFF791FF054606
:101C40000F480068281A0A2817D3FFF78FFF0446A9
:101C50000C480078844202D0094805600BE0062C4D
:101C600009D007480068281AB0F57A7F03D30648E0
:101C70000560E01CC4B203480470204670BD00003B
:101C8000200000201C0000202400002000B585B0AA
:101C900000BF1D48806940F008001B498861084664
:101CA000806900F00800009000BF00BF00BF084638
:101CB000806940F0400088610846806900F040007B
:101CC000009000BF00BF20200190012002900390EF
:101CD0000320049001A90D48FEF710FC202001907C
:101CE0000120029003900320049001A90848FEF708
:101CF00005FC0121054800F00DF80121044800F021
:101D000009F805B000BD000000100240000C0140C1
:101D10000018014070B504460D460948844205D1BB
:101D20002A4620212046FEF791FD07E0054884421F
:101D300004D12A4620212046FEF788FD70BD000010
:101D4000000C0140001801401CB5FEF797FDFFF79D
:101D5000FCFCFFF7BBFC0020019001200090FFF786
:101D600095FFFFF71DFF174800684FF47A71B0FB2D
:101D7000F1F0401E84B221460020FFF723FD20E051
:101D8000FFF758FF06281BD2DFE800F0030B0E1107
:101D9000141701A96846FFF7C5FE0520FEF79AFB58
:101DA0000EE0FFF773FF0BE0FFF770FF08E0FFF7AF
:101DB0006DFF05E0FFF76AFF02E0FFF767FF00BF76
:101DC00000BFDDE70C000020020304050607080938
:101DD0000A0B0C0D0E0F1010010200000000000095
:101DE00000000102030406070809000000000102C8
:101DF00003040000141E000800000020280000005A
:101E00006C0100083C1E000828000020800700002C
:101E10008801000800000000100000000100000020
:101E20000024F4000000000000000000000000009A
:0C1E3000060000000000000000000000A0
:0400000508000131BD
:00000001FF
