:020000040800F2
:1000000038090020ED010008112F0008C72E000854
:100010000D2F000819130008A1350008000000008A
:10002000000000000000000000000000412F000858
:100030001D13000800000000152F0008432F0008C2
:10004000070200080702000807020008070200086C
:10005000070200080702000807020008070200085C
:10006000070200080702000807020008070200084C
:10007000070200080702000807020008070200083C
:10008000070200080702000807020008070200082C
:10009000070200080702000807020008070200081C
:1000A000070200080702000807020008070200080C
:1000B0000702000807020008B52F00080702000821
:1000C00007020008070200080702000807020008EC
:1000D000070200088535000807020008070200082B
:1000E00007020008070200080702000807020008CC
:1000F00007020008070200080702000807020008BC
:1001000007020008070200080702000807020008AB
:100110000702000807020008C52F000807020008B0
:10012000070200080702000807020008070200088B
:1001300000F002F800F04AF80AA090E8000C8244AF
:100140008344AAF10107DA4501D100F03FF8AFF28C
:10015000090EBAE80F0013F0010F18BFFB1A43F0A5
:10016000010318477045000090450000103A24BF75
:1001700078C878C1FAD8520724BF30C830C144BF0C
:1001800004680C607047000000230024002500264E
:10019000103A28BF78C1FBD8520728BF30C148BFEA
:1001A0000B607047662904F03482642900F0808077
:1001B000002070471FB500F05DFB04000020002107
:1001C00003F0D2FCE0601FBD10B510BD00F06EFC66
:1001D0001146FFF7EFFF03F09FFB00F08CFC03B428
:1001E000FFF7F2FF03BC03F00DFA00000948804757
:1001F00009480047FEE7FEE7FEE7FEE7FEE7FEE709
:10020000FEE7FEE7FEE7FEE704480549054A064B20
:1002100070470000B12F00083101000838030020AA
:1002200038090020380500203805002070470000FC
:100230000FB4044910B503AA029800F009FB10BCE2
:100240005DF814FB280000202DE9F0410E4604461D
:10025000002020622046E168884730B3252805D079
:10026000D4E901219047206A401CF2E7E16820466A
:1002700000278847050018D0A5F14100192802D8A9
:1002800020354FF400673246294620462760FFF7A5
:1002900089FF40B1012804D0F61D26F00706083674
:1002A000D8E7361DD6E72846DAE7206ABDE8F081B0
:1002B0002DE9F0410646002410687529314616A53F
:1002C00010D0AFF30080002802DA404213A507E007
:1002D00031688A0701D512A502E0490704D511A5A6
:1002E000012401E0AFF3008000210A2206F1240777
:1002F00009E0B0FBF2FCB0FBF2F302FB1C00303073
:1003000078541846491C0028F3D123462A46304623
:10031000BDE8F04100F033B8000000002D000000FF
:100320002B000000200000004FF0000200B5134633
:1003300094469646203922BFA0E80C50A0E80C5005
:10034000B1F12001BFF4F7AF090728BFA0E80C50B6
:1003500048BF0CC05DF804EB890028BF40F8042BAF
:1003600008BF704748BF20F8022B11F0804F18BF1C
:1003700000F8012B704770477047704770472DE9B0
:10038000F0470D4699469246044600F1240801685C
:10039000880604D5E06921F01001216000E0012009
:1003A000A84201DD471B00E00027A1697A1902EB92
:1003B0000900081AA0612078C00602D42046AFF3D5
:1003C0000080002608E0D4E901211AF806009047D1
:1003D000206A401C761C20624E45F4DB2078C00663
:1003E0000AD52046AFF3008006E0D4E90121302091
:1003F0009047206A401C2062381EA7F10107F4DCF8
:1004000007E0D4E9012118F805009047206A401C54
:100410002062281EA5F10105F3DC2046AFF3008021
:100420002078000602D50220BDE8F0870120FBE716
:1004300070472DE9FF4F0C461E464FF0FF378BB03B
:10044000D2E90001DDF860800A908A46C1F30A55BE
:1004500005B93D46002108464FF00000BAF1000FF3
:1004600000F4400005DA00EB80004FF4400101EA9F
:1004700050004FEA9059B9F1010F00DDB9460A98D2
:1004800050EA4A000ED044F61050A5F2FF3545431D
:100490002F14B8F1000F1ED07542291E1EDDC9F1C0
:1004A00000021CE0B8F1010F4FF0000001D0302134
:1004B00003E0F24305E02154401CB042FBDB304630
:1004C0000022002121540B99C1F80880C1E90020C5
:1004D0000FB0BDE8F08FBD1B6D1CDEE74A4600DAA9
:1004E000694206A800F068FA06AB93E8070003AB80
:1004F00083E8070050460A9900F046FB8DE80700A4
:10050000A0F500501F3800900398002D0ADD42F23C
:100510001F014A460844002303A90390684600F0DF
:10052000AFFD09E0A0F500504A461F38002303A99B
:100530000390684600F0B9FD8DE807000004000C48
:1005400003D04FF0FF30410800E01046B8F1000F33
:1005500003D00022009215461EE0751E05D400F05F
:100560008DF9303262556D1EF9D5B346012208432C
:1005700002D000227F1C04E02078302801D1002224
:100580007F1E002A099784D01DE0112D07DA00F0A4
:1005900075F9303262556D1C50EA0102F5D10843FD
:1005A00002D00098C8B10EE00021681E05E0235C6F
:1005B000625C63542254401E491C8142F7DBAB4607
:1005C000A81B401E0990002004F80B000B98099A04
:1005D000C0F80880C0E9002B7AE711264FF0000828
:1005E00057E72DE9F04F88460446D21D22F0070157
:1005F00091B0D1E90001CDE90A0102F0D3FF024632
:100600000B98C00F01D02D2007E02068810701D58D
:100610002B2002E0202101EAC000032A099001D02A
:10062000072A05DB03464146204600F085F90BE129
:100630002078800601D5E06900E00620B8F1650F5A
:10064000814606D0B8F1660F18D0B8F1670F70D1A7
:1006500031E00020B9F1110F009001DB112301E01E
:1006600009F101030AAA01A90CA8FFF7E2FEDDE9DE
:100670000C70002609F10105834647E001204B4636
:1006800000904FF000470AAA01A90CA8FFF7D1FE7D
:10069000DDE90DB00C995D46002610B909F10100A5
:1006A0000D18B9EB050003D4C0F1FF3609F10105BF
:1006B000A5EB09002BE0B9F1010F01DA4FF00109B8
:1006C0000020B9F1110F0090484601DD112300E030
:1006D00003460AAA01A90CA8FFF7ABFEDDE90C70DE
:1006E0004D4600268346207800070AD4AB4500DA41
:1006F0005D4601A8012D04DD411911F8011C3029C6
:1007000007D04F4502DA17F1040F04DA01208246C0
:100710000FE06D1EEEE7002F02DCED1B3E4403E010
:10072000781CA84200DD7D1CB81B00F1010A4FF0C7
:1007300000472078000703D4AA4501DB4FF0FF3AB9
:100740000021B7F1004F0DF143088DF8431024D07C
:1007500002202B23002F01DA7F422D230A21021EC3
:10076000A0F1010000DC5FB197FBF1FC97FBF1F217
:1007700001FB1C7C17460CF1300C08F801CDEEE7AC
:10078000A8F1010003702188090501D5452100E089
:100790006521A0F1010800F8011C09980FA9A1EB3F
:1007A0000807FF1D00B10120411901EBEA70A169A2
:1007B0003844081A401EA0612078C00602D42046A2
:1007C000AFF30080099828B1D4E901219047206A4D
:1007D000401C20622078C00622D52046AFF300805E
:1007E0001EE0002E04DBB34502DD01A8805D00E0C1
:1007F0003020D4E901219047206A401C2062761CF9
:10080000AAF101005FEA000A0AD100F033F8C068DB
:100810000168405CD4E901219047206A401C2062B5
:10082000281EA5F10105DCDC07E0D4E9012118F858
:10083000010B9047206A401C2062381EA7F1010777
:10084000F3DC2046AFF30080032011B041E6000046
:10085000074B70B50D467B4400F05BF80446284614
:1008600000F01CF910B14FF0FF3070BD204670BD94
:100870009F30000000487047F402002030B5B0F10E
:100880000A024FEA900E71F100034EEA817EB0EB4E
:100890000E0061EB91014FEA101E4EEA017E10EB53
:1008A0000E0041EB11114FEA102E4EEA016E10EBD3
:1008B0000E0041EB11214FEA104E4EEA014E10EBB3
:1008C0000E0041EB1141401841F100014FEAD00008
:1008D00040EA41704FEAD10110EB80054FEA8104F4
:1008E00044EA907444EB01046D1944EB0404521B78
:1008F000A3414FF0000348BF0A3200D530BD401C71
:1009000041F1000130BD000001694A1C0261087814
:10091000704700B58FB0CDE901310021059105493F
:100920007944CDE9031011466846FFF78DFC0FB0FE
:1009300000BD0000E5FFFFFF2DE9F0411F46044622
:1009400003260168072A01F4006004DB08B116A53C
:1009500005E016A503E008B115A500E015A521F0F6
:1009600010002060A069C01EA0610FB1401EA061F0
:100970002046AFF300804FB1D4E9012138469047BB
:10098000206A401C2062C01C206206E0206AFAE750
:10099000D4E9012115F8010B9047761EF8D22046C4
:1009A000AFF30080BDE8F0814E414E006E616E00F5
:1009B000494E4600696E66002DE9F04781461646AD
:1009C0008AB0354878440DC88DE80D003248784427
:1009D000801C03AC0DC884E80D0041F69B30084430
:1009E000372190FBF1F290FBF1F5A5F1800501FBB9
:1009F00012041B3C02D56442012000E00020DFF815
:100A000098A080460027FA44AAF1BE0A0EE0E0074B
:100A10000AD03246684607EB470101230AEB810101
:100A200000F043FB8DE8070064107F1C002CEED122
:100A3000194F7F44AE3F19E0E80715D007EB0410CB
:100A40000DF1180A90E80E008AE80E00C068F04226
:100A500001D1981908903246012306A903A800F095
:100A600024FB03AB83E807006D10641C002DE3D169
:100A70004FF0010332466946B8F1000F03A802D0D7
:100A800000F0FEFA01E000F010FBC9E90001C9F82E
:100A900008200AB0BDE8F087F43C0000007B00F0BD
:100AA0008000704700487047D40200207546FFF769
:100AB000F9FFAE4605006946534620F0070085461B
:100AC00018B020B5FFF7A0FBBDE820404FF00006AE
:100AD0004FF000074FF000084FF0000B21F0070126
:100AE000AC46ACE8C009ACE8C009ACE8C009ACE869
:100AF000C0098D46704710B50446AFF3008020460C
:100B0000BDE81040FFF76BBB4FF0013C50F8042BE1
:100B100051F8043B9A4221D1A2EB0C03934313EA10
:100B2000CC1317D150F8042B51F8043B9A4215D13D
:100B3000A2EB0C03934313EACC130BD150F8042B14
:100B400051F8043B9A4209D1A2EB0C03934313EAF8
:100B5000CC13DBD04FF00000704700BFD01A01BAB1
:100B6000B1FA81F101F0180122FA01F0CB40C1F194
:100B70002001DBB2C0B2C01A2CFA01F3D11A9143A2
:100B800011EAC311E6D170475FEA400C08BF91F04B
:100B9000000F4FEA8C234FEAC12243EA51514FEA3A
:100BA0001C5018BF00F5F0404FEA300018BF41F06C
:100BB00000415FEA6C5C00F02980BCF1FF3F08BF98
:100BC00040F080407047130C06BF12044FF0100C29
:100BD0004FF0000C130E04BF12020CF1080C130F9F
:100BE00004BF12010CF1040C930F04BF92000CF12E
:100BF000020CD30F04BF52000CF1010C11464FF050
:100C00000002A0F11F00A0EB0C00704711F0004F94
:100C100008BF704731F000413FF4D5AF0B0C06BF61
:100C200009044FF0100C4FF0000C0B0E04BF09022A
:100C30000CF1080C0B0F04BF09010CF1040C8B0F15
:100C400004BF89000CF1020CCB0F04BF49000CF16A
:100C5000010CCCF12003A0EB0C0022FA03F302FA02
:100C60000CF241EA030100F10100704720F07F4CD3
:100C700080EA030023F07F47ACEB070303F57C53C6
:100C800000F0004003F1FF032DE980494FEA154BC6
:100C900009B44FEA144325EA0B4E24EA03480FF245
:100CA000042606EB132749083E785FEA320203FB6D
:100CB0000667C7F5000707FB06F64FEA54374FEA09
:100CC000D64606F1020607FB066CCCF1005C4FEA43
:100CD0001C472CEA074C07FB06F40CFB06F504EB5B
:100CE00015464FEA961634BF00204FF000404FEAF9
:100CF000D13706FB07FC4FEA1C4C0CFB0BF7D21B51
:100D000003FB0CF761EB07010CFB0EF7B0EB0740A0
:100D100072EB17420CFB08F734BFA2EB0742B2EBB1
:100D2000074261EB17414FEA0C444FEA910706FB7B
:100D300007FC4FEA1C4C0CFB0BF7B0EBC74072EB07
:100D4000573203FB0CF734BFA2EBC742B2EBC742EA
:100D500061EB57310CFB0EF7B0EBC70072EB57722B
:100D60000CFB08F734BFA2EBC702B2EBC70261EB82
:100D70005771039F4FEA816141EA921104EBCC0461
:100D80004FEAD1374FEA826206FB07FC42EA901233
:100D90004FEA80604FEA1C4C0CFB0BF7D21B03FBA5
:100DA0000CF761EB07010CFB0EF7B0EB074072EBA1
:100DB00017420CFB08F734BFA2EB0742B2EB074225
:100DC00061EB17414FEA8C554FEA910704EB9C24E5
:100DD00006FB07FC4FEA1C4C0CFB0BF7B0EBC740C3
:100DE00072EB573203FB0CF734BFA2EBC742B2EBF6
:100DF000C74261EB57310CFB0EF7B0EBC70072EB4B
:100E000057720CFB08F734BFA2EBC702B2EBC70264
:100E100061EB577115EB4C254FEA816141EA921164
:100E20004FEA82624FEAD13742EA901206FB07FC92
:100E300044F100044FEA80604FEA1C4C0CFB0BF7B6
:100E4000D21B03FB0CF761EB07010CFB0EF7B0EBB9
:100E5000074072EB17420CFB08F734BFA2EB0742C6
:100E6000B2EB074261EB174115EB1C154FEA8131DC
:100E700041EA92414FEA823242EA90424FEA8030A0
:100E80004FEA0C7644F1000448EA03434EEA0B486B
:100E90004FF0000EB2EB080C71EB030724BF624663
:100EA00039464EEB0E0E4FF0000B001852414941EF
:100EB0004BEB0B0BB2EB080C71EB03077BF1000B58
:100EC00024BF624639464EEB0E0E4FF0000B001861
:100ED000524149414BEB0B0BB2EB080C71EB030792
:100EE0007BF1000B24BF624639464EEB0E0E51EAF1
:100EF000020718BF46F0010616EB0E7655F1000208
:100F000054F1000103D5BDE88901BDE80088BDE8C2
:100F10008901BDE80048B619524141EB0101A3F136
:100F20000103704780807F7E7D7C7B7A797877763D
:100F300076757473727171706F6E6E6D6C6C6B6AB6
:100F40006A69686867666665646463636261616054
:100F5000605F5F5E5E5D5D5C5C5B5B5A5A595958D1
:100F6000585757565655555554545353525252513B
:100F7000515050504F4F4F4E4E4D4D4D4C4C4C4B91
:100F80004B4B4A4A4A4949494848484747474746D8
:100F90004646454545444444444343434342424214
:100FA00042414141002B9C4630D477002BD01CB5E8
:100FB0004FEA370703B44FF010004FF01001BAF1B9
:100FC000000F06D0BCF1000FDCBF40F0080040F07D
:100FD00008014FF000000FBCBDE810400BF1010B01
:100FE000BBF1010F08BF5FEA170722BF12F1010230
:100FF00011F101014FF0004143F1000300F0004006
:1010000043EA00007047F9D35708D0E746EA06469E
:1010100013F1400F4FEA16461FDD13F1200FDFBF1B
:1010200016430A46002120335B42BED0C3F120079D
:1010300046EA064602FA07F74FEA164646EA070668
:10104000C3F1200722FA03F201FA07F721FA03F1AC
:101050004FF0000342EA0702A7E746EA020646EA23
:1010600006464FEA164646EA0106BCBF46EA064671
:10107000360C4FF000034FF000024FF0000194E7F0
:101080002DE9804C9A46934670B491E8380007C821
:1010900031EA400C48BF34EA430C03D5FFF7E6FDC4
:1010A000FFF780FFF0BCBDE8008C2DE9804C9A462C
:1010B000934670B491E8380007C810F0804F08BF1D
:1010C00013F0804F03D100F005F8FFF76BFFF0BC81
:1010D000BDE8008C20F07F4780EA030023F07F4CBE
:1010E00007EB0C03A3F57C5300F00040A3F1FE03D3
:1010F00092F0000F00F0B38095F0000F00F07780C1
:101100002DE901494FEA11404FEA144621EA00480F
:1011100000FB06FC24EA064708FB06F607FB08F876
:1011200000FB07F718EB06484CEB164C4FEA124B46
:1011300018EB07484FEA15464CEB174022EA0B4ED6
:101140000BFB06FC25EA06470EFB06F607FB0EFE28
:101150000BFB07F71EEB064E4CEB164C4FF0000650
:101160001EEB074E4CEB174B18EB0B0840F1000041
:1011700018EB0E0B58EB000840F100008F1A4FF0EF
:1011800000013CBFC943661B14BFB5EB040C002132
:101190003CBFC943F61B4FEA17444EEA8E0E27EABE
:1011A00004454FEA1C4704FB07622CEA074C05FB89
:1011B00007F70CFB05F604FB0CFC16EB074642EBAD
:1011C000174216EB0C4642EB1C421BEB060658EB93
:1011D0000202414146EA9E0601D5BDE80189B619E1
:1011E000524141EB0101A3F10103BDE801894FEA3E
:1011F00014454FEA114724EA054621EA074C05FB4E
:1012000007F406FB07F70CFB06F105FB0CFC11EBE2
:10121000074144EB17444FEA124711EB0C4144EBF2
:101220001C4422EA074C05FB07F206FB07F70CFB00
:1012300006F605FB0CFC16EB074642EB174216EBD5
:101240000C4642EB1C456A1854F1000148BF704738
:10125000B619524141EB0101A3F10103704795F02A
:10126000000F37D04FEA11424FEA144721EA0246F5
:1012700024EA074C02FB07F106FB07F70CFB06F418
:1012800002FB0CFC14EB074441EB17414FEA1547F6
:1012900014EB0C4441EB1C4125EA074C02FB07F51B
:1012A00006FB07F70CFB06F602FB0CFC16EB0746E9
:1012B00045EB174516EB0C4645EB1C42121951F154
:1012C000000148BF7047B619524141EB0101A3F13B
:1012D000010370474FEA14454FEA114724EA0546D7
:1012E00021EA074C05FB07F106FB07F70CFB06F2AA
:1012F0004FF0000605FB0CFC12EB074241EB1741D7
:1013000012EB0C4251EB1C4148BF7047921841EB65
:101310000101A3F10103704700BFFEE7704772B6F9
:1013200000BFFEE70146002291F82100022808D004
:101330000420886300BF002081F8200000BF012046
:1013400070470868006820F00E000B681860086895
:10135000006820F001000B68186091F8403001200F
:101360009840CB6B5860012081F8210000BF00201D
:1013700081F8200000BF1046E2E7000070B5044687
:10138000002594F82100022803D00420A063012541
:10139000C1E02068006820F00E0021680860206825
:1013A000006820F00100216808605C4920688842DC
:1013B00052D95A4978392068884201D1012047E042
:1013C000564964392068884201D1102040E05349D1
:1013D00050392068884201D1801539E04F493C39A5
:1013E0002068884201D1801432E04C4928392068B5
:1013F000884202D14FF480302AE0484914392068ED
:10140000884202D14FF4801022E04449206888428B
:1014100001D140041CE042492068884201D10120EA
:1014200016E03F4914312068884201D110200FE0B6
:101430003B4928312068884201D1801508E03849AD
:101440003C312068884201D1801401E04FF48030A3
:101450003349091F086051E03049783920688842D3
:1014600001D1012047E02D4964392068884201D12B
:10147000102040E0294950392068884201D1801568
:1014800039E026493C392068884201D1801432E095
:10149000224928392068884202D14FF480302AE05E
:1014A0001E4914392068884202D14FF4801022E08E
:1014B0001A492068884201D140041CE0184920687C
:1014C000884201D1012016E0154914312068884274
:1014D00001D110200FE0124928312068884201D143
:1014E000801508E00E493C312068884201D1801403
:1014F00001E04FF48030094980394860012084F8C8
:10150000210000BF002084F8200000BF606B10B1F4
:101510002046616B8847284670BD0000800002406D
:101520000804024070B5044600F0B6F906462546A8
:10153000681C10B104480078054400BF00F0ACF905
:10154000801BA842FAD370BD0C0000202DE9F8479B
:10155000024600239C467BE14FF0010808FA03F4A1
:10156000D1F8008008EA0400A0427DD1DFF8F4A29F
:10157000D1F80480A8EB0A09D0453AD014DCB8F1C0
:10158000030F50D009DCB8F1000F31D0B8F1010FD2
:101590001CD0B8F1020F49D120E0B8F1110F18D0DA
:1015A000B8F1120F42D11EE0B9F5881F25D006DC34
:1015B000B9F5803F20D0B9F5801F37D11AE0B9F5D1
:1015C000001F18D0B9F5041F30D117E0D1F80CC0B6
:1015D0002DE0D1F80C8008F1040C28E0D1F80C8043
:1015E00008F1080C23E0D1F80C8008F10C0C1EE087
:1015F00000BF00BF00BF00BF00BF00BFD1F8088020
:10160000B8F1000F02D14FF0040C0BE0D1F80880C4
:10161000B8F1010F03D14FF0080C146102E04FF054
:10162000080C546103E04FF0000C00E000BF00BF65
:10163000FF2801D8904601E002F104084646FF2841
:1016400002D84FEA830803E0A3F108084FEA8808AC
:101650004746D6F800804FF00F0909FA07F928EA43
:1016600009080CFA07F900E07AE048EA0908C6F828
:101670000080D1F8048008F08058B8F1805F6FD105
:1016800000BFDFF8E481D8F8188048F00108DFF8DF
:10169000D891C9F81880C846D8F8188008F0010811
:1016A000CDF8008000BF00BF4FEAB9384FEA930978
:1016B00058F829504FEA83784FEA18794FF00F080D
:1016C00008FA09F825EA0805DFF8A081424502D1A9
:1016D0004FF0000824E0DFF89881424502D14FF036
:1016E00001081DE0DFF88C81424502D14FF002086D
:1016F00016E0DFF88481424502D14FF003080FE085
:10170000DFF87881424502D14FF0040808E0DFF8A5
:101710007081424502D14FF0050801E04FF0060804
:101720004FEA83794FEA197908FA09F848EA05057A
:10173000DFF850814FEA930948F82950D1F8048026
:1017400008F48018B8F5801F0BD1DFF83C81D8F879
:10175000008048EA0008DFF83091C9F800800AE00C
:1017600075E0DFF82481D8F8008028EA0008DFF867
:101770001891C9F80080D1F8048008F40018B8F571
:10178000001F0ED1DFF8008108F10408D8F80080AE
:1017900048EA0008DFF8F09009F10409C9F8008070
:1017A0000DE0DFF8E48008F10408D8F8008028EAAA
:1017B0000008DFF8D49009F10409C9F80080D1F8D5
:1017C000048008F40038B8F5003F0ED1DFF8B88087
:1017D000A8F10408D8F8008048EA0008DFF8A890CB
:1017E000A9F10409C9F800800DE0DFF89C80A8F198
:1017F0000408D8F8008028EA0008DFF88C90A9F1E6
:101800000409C9F80080D1F8048008F48038B8F5DC
:10181000803F0ED1DFF87080A8F10808D8F800806A
:1018200048EA0008DFF86090A9F10809C9F80080CB
:101830000DE0DFF85480A8F10808D8F8008028EA05
:101840000008DFF84490A9F10809C9F800805B1C82
:10185000D1F8008028FA03F8B8F1000F7FF47CAECD
:10186000BDE8F88700001110001002400008014098
:10187000000C01400010014000140140001801401C
:10188000001C014008000140080401400AB1016148
:1018900001E00B04036170470148006870470000D5
:1018A00004000020034800680349097808440149FE
:1018B00008607047040000200C00002010B50848A4
:1018C000006840F0100006490860032000F0A8F806
:1018D0000F2000F007F800F02BF8002010BD0000EA
:1018E0000020024070B504460E4800784FF47A712B
:1018F000B1FBF0F00C490968B1FBF0F5284600F0A7
:10190000F9FB08B1012070BD102C07D2002221463E
:10191000501E00F047F80548046001E00120F2E79E
:101920000020F0E70C00002010000020080000203C
:1019300008B500BF1148806940F001000F49886177
:101940000846806900F00100009000BF00BF00BFA2
:101950000846C06940F08050C8610846C06900F080
:101960008050009000BF00BF00BF0549486820F0CC
:10197000E06040F00070486000BF08BD0010024009
:101980000000014001460846002809DB00F01F0363
:1019900001229A4043099B0003F1E023C3F8002190
:1019A00000BF70472DE9F05F80460D4616460027C0
:1019B00001F00CFE074639462A46334601F007007F
:1019C000C0F1070ABAF1040F02D94FF0040A01E08E
:1019D000C0F1070AD14600F1040ABAF1070F02D29A
:1019E0004FF0000A01E0A0F1030AD4464FF0010ACB
:1019F0000AFA09FAAAF1010A0AEA020A0AFA0CFA30
:101A00004FF0010B0BFA0CFBABF1010B0BEA030BD4
:101A10004AEA0B042146404601F0E0FDBDE8F09F94
:101A200000BF00F00702064B19684FF6FF0319408C
:101A3000044B0B4343EA0221014B196000BF70477E
:101A40000CED00E00000FA0570B504460D460CB937
:101A5000012070BD5A48006800F00700A8420ED26D
:101A60005748006820F00700284355490860084699
:101A7000006800F00700A84201D00120E9E72078C3
:101A800000F0020002281DD1207800F00400042894
:101A900005D14C48406840F4E0604A4948602078ED
:101AA00000F00800082805D14648406840F460501E
:101AB000444948604348406820F0F000A16808436A
:101AC00040494860207800F0010078B36068012840
:101AD00006D13C48006800F4003090B90120B8E716
:101AE0006068022806D13748006800F0007040B9ED
:101AF0000120AEE73348006800F0020008B9012079
:101B0000A7E73048406820F00300616808432D498A
:101B10004860FFF7C1FE064609E0FFF7BDFE801BE7
:101B200041F28831884202D9032092E707E0254834
:101B3000406800F00C006168B0EB810FEDD12048E7
:101B4000006800F00700A8420ED91D48006820F088
:101B5000070028431A4908600846006800F007009B
:101B6000A84201D0012074E7207800F00400042886
:101B700007D11448406820F4E060E1680843114947
:101B80004860207800F00800082808D10D48406817
:101B900020F46050216940EAC1000A49486000F021
:101BA0003FF808494968C1F30311074A515CC8402E
:101BB0000649086006480068FFF794FE002048E7E1
:101BC00000200240001002402846000810000020BB
:101BD0000800002001480068704700001000002045
:101BE00000B5FFF7F7FF04494968C1F30221034A32
:101BF000515CC84000BD000000100240384600089B
:101C000000B5FFF7E7FF04494968C1F3C221034A61
:101C1000515CC84000BD000000100240384600087A
:101C200070B500210022002400230020134D6968B4
:101C300001F00C05F5B1042D02D0082D19D101E0F9
:101C40000F4819E00F4DC1F38346AB5D01F48035B9
:101C500055B10A4D6D68C5F340450B4E725D084D98
:101C60005D43B5FBF2F402E0084D03FB05F42046AA
:101C700002E000BF024800BF00BF70BD001002407C
:101C800000127A00164600082646000800093D00AA
:101C9000F8B504460CB90120F8BD207800F0010029
:101CA000002878D0F848406800F00C0004280CD0D8
:101CB000F548406800F00C00082811D1F24840684F
:101CC00000F48030B0F5803F0AD1EF48006800F49E
:101CD000003000285FD0606800285CD10120DBE77D
:101CE00000BF6068B0F5803F06D1E748006840F467
:101CF0008030E549086028E0606858B9E24800682B
:101D000020F48030E04908600846006820F4802014
:101D100008601AE06068B0F5A02F0BD1DA480068BF
:101D200040F48020D84908600846006840F48030BC
:101D300008600AE0D448006820F48030D249086086
:101D40000846006820F48020086000BF606888B101
:101D5000FFF7A2FD054606E0FFF79EFD401B642845
:101D600001D9032098E7C848006800F40030002833
:101D7000F2D010E0FFF790FD054606E0FFF78CFD7E
:101D8000401B642801D9032086E7BF48006800F49F
:101D900000300028F2D1207800F00200022857D14C
:101DA000B948406800F00C0050B1B748406800F0F6
:101DB0000C00082818D1B448406800F4803098B965
:101DC000B148006800F0020020B12069012801D06C
:101DD000012061E7AC48006820F0F800616940EA42
:101DE000C100A949086033E02069E8B10120A74992
:101DF0000860FFF751FD054606E0FFF74DFD401B6B
:101E0000022801D9032047E79F48006800F002003C
:101E10000028F2D09C48006820F0F800616940EA90
:101E2000C1009949086013E0002098490860FFF755
:101E300033FD054606E0FFF72FFD401B022801D9C0
:101E4000032029E79048006800F002000028F2D142
:101E5000207800F0080008282DD1A069B8B1012031
:101E60008B490860FFF718FD054606E0FFF714FDF3
:101E7000401B022801D903200EE78348406A00F086
:101E800002000028F2D0012001F046F813E0002003
:101E90007F490860FFF700FD054606E0FFF7FCFC00
:101EA000401B022801D90320F6E67748406A00F07B
:101EB00002000028F2D1207800F00400042873D139
:101EC00000277148C06900F0805070B900BF6E48AB
:101ED000C06940F080506C49C8610846C06900F094
:101EE0008050009000BF00BF01276A48006800F4DE
:101EF0008070B0B96748006840F480706549086038
:101F0000FFF7CAFC054606E0FFF7C6FC401B642845
:101F100001D90320C0E65F48006800F48070002803
:101F2000F2D000BFE068012806D15748006A40F0AF
:101F300001005549086227E0E06858B95248006A34
:101F400020F00100504908620846006A20F00400B1
:101F5000086219E0E06805280BD14B48006A40F0A0
:101F60000400494908620846006A40F0010008621E
:101F70000AE04548006A20F001004349086208462B
:101F8000006A20F00400086200BFE068A0B1FFF71B
:101F900083FC054609E0FFF77FFC401B41F28831D6
:101FA000884202D9032077E622E03748006A00F031
:101FB00002000028EFD012E0FFF76EFC054608E0B3
:101FC000FFF76AFC401B41F28831884201D90320A7
:101FD00062E62D48006A00F002000028F0D1012FCF
:101FE00005D12948C06920F080502749C86100BF49
:101FF000E069C8B32448406800F00C00082860D0AD
:10200000E069022848D1002020490866FFF744FC17
:10201000054606E0FFF740FC401B022801D90320DB
:102020003AE61948006800F000700028F2D1206AF2
:10203000B0F5803F07D11448406820F40030A16813
:10204000084311494860D4E9080108430E4949682A
:1020500021F4741108430C49486001200B490866BB
:10206000FFF71AFC054607E03DE0FFF715FC401BB3
:10207000022801D903200FE60348006800F0007031
:102080000028F2D02FE00000001002400000424281
:102090008004424200700040002014490866FFF7A7
:1020A000FBFB054606E0FFF7F7FB401B022801D9C2
:1020B0000320F1E50E48006800F000700028F2D11E
:1020C00011E0E069012800D1E6E50948466806F418
:1020D0008031206A814204D106F47011606A814225
:1020E00001D00120D8E50020D6E5000000004242E2
:1020F0000010024070B504462546681EB0F1807F8E
:1021000001D301200FE0681E4FF0E02148610F214C
:102110004FF0FF3001F062FA00204FF0E0218861BB
:1021200007200861002070BD7047704710B5044655
:102130000CB9012010BD94F83D0028B9002084F8A6
:102140003C00204600F026F8022084F83D00211DC6
:10215000206800F03FFF012084F8460000BF84F8AB
:102160003E0001213F2001554020015541200155ED
:1021700000BF00BF012084F84200432001554420E5
:1021800001554520015500BF012084F83D00002085
:10219000D0E7000038B504460C492068884213D1C6
:1021A00000BF0B48C06940F010000949C8610846EB
:1021B000C06900F01000009000BF00BF3620FFF79C
:1021C000E1FB044800F008F838BD000000100040B2
:1021D00000100240A8000020014691F83D000128AF
:1021E00001D001207047022081F83D000868C068D6
:1021F00040F001000B68D860164B0868984213D075
:10220000154B086898420FD00868B0F1804F0BD08A
:10221000124B0868984207D0114B0868984203D0C7
:10222000104B086898420CD10868806800F00702DB
:10223000062A0CD00868006840F001000B6818609E
:1022400005E00868006840F001000B681860002095
:10225000C8E70000002C01400034014000040040A9
:1022600000080040000C00402DE9F04104460D46F6
:1022700014B90120BDE8F08194F83D0028B9002090
:1022800084F83C00204600F051F8022084F83D001C
:102290002068806844F20701884321688860211D16
:1022A000206800F097FE2068D0F8088020688669D2
:1022B0002068076A286840EA080840F2033086432D
:1022C000A969A86840EA0120064340F60C4086430D
:1022D0004FF2F0008643E969E86840EA01200643CE
:1022E00028690001296A40EA0130064327F02207E5
:1022F0006969686840EA011007432068C0F80880EF
:102300002068866120680762012084F8460084F80E
:102310003E0001213F200155012084F84200432066
:102320000155012084F83D000020A3E710B586B0D8
:1023300004462B492068884250D100BF2948806953
:1023400040F00800274988610846806900F00800CD
:10235000019000BF00BF00BF0846C06940F0040004
:10236000C8610846C06900F00400019000BF00BFCA
:10237000402002900220039000200490032005904A
:1023800002A91948FFF7E2F880200290022003908A
:10239000002004900320059002A91348FFF7D6F807
:1023A000002202211E20FFF7FDFA1E20FFF7EAFAA5
:1023B00000210E4800F01CF804210C4800F018F829
:1023C0006FF0010009490968086108480068C068A1
:1023D00040F0010005490968C86000BF06B010BDA3
:1023E0000008004000100240000C01403C000020AA
:1023F0002DE9F04304460D4694F83E603F20075D0A
:1024000094F84280432010F804906DB9012E02D157
:10241000B8F1010F02D00120BDE8F083022084F85A
:102420003E0084F8420025E0042D0CD1012F02D19A
:10243000B9F1010F01D00120EEE702213F20015543
:102440004320015516E0012E07D1012F05D1B8F127
:10245000010F02D1B9F1010F01D00120DCE7022008
:1024600084F83E0002213F200155022084F84200FA
:102470004320015515B1042D0CD105E001220021A6
:10248000206800F0F5FD10E001220421206800F032
:10249000EFFD0AE001220021206800F0E9FD0122A1
:1024A0000421206800F0E4FD00BF00BF2068006840
:1024B00040F00100216808600020ADE7704710B5CA
:1024C000044620680069C0F34000D8B12068C068A5
:1024D000C0F34000B0B16FF0020021680861012034
:1024E00020772068806900F0030018B12046FFF7CC
:1024F000E5FF05E0204600F0ADF8204600F004FAC4
:102500000020207720680069C0F38000D8B12068DF
:10251000C068C0F38000B0B16FF0040021680861AA
:10252000022020772068806900F4407018B12046AE
:10253000FFF7C4FF05E0204600F08CF8204600F0CD
:10254000E3F90020207720680069C0F3C000D8B10B
:102550002068C068C0F3C000B0B16FF00800216807
:102560000861042020772068C06900F0030018B1DA
:102570002046FFF7A3FF05E0204600F06BF8204659
:1025800000F0C2F90020207720680069C0F3001035
:10259000D8B12068C068C0F30010B0B16FF010006F
:1025A00021680861082020772068C06900F4407025
:1025B00018B12046FFF782FF05E0204600F04AF8F8
:1025C000204600F0A1F9002020772068006900F083
:1025D000010058B12068C06800F0010030B16FF010
:1025E000010021680861204600F00AFA20680069AD
:1025F000C0F3C01058B12068C068C0F3C01030B13B
:102600006FF08000216808612046FFF78DFD20688B
:102610000069C0F3801058B12068C068C0F3801012
:1026200030B16FF0400021680861204600F01EFACA
:1026300020680069C0F3401058B12068C068C0F33A
:10264000401030B16FF02000216808612046FFF78C
:102650006CFD10BD70472DE9F04104460D4616464D
:10266000002700BF94F83C00012802D10220BDE8F9
:10267000F081012084F83C0000BF36B1042E1BD04D
:10268000082E31D00C2E5ED145E02946206800F09E
:1026900001FD2068806940F0080021688861206899
:1026A000806920F0040021688861206880692969B8
:1026B00008432168886148E02946206800F022FD2F
:1026C0002068806940F40060216888612068806922
:1026D00020F480602168886120688069296940EA67
:1026E00001202168886130E02946206800F048FD1B
:1026F0002068C06940F008002168C8612068C0698E
:1027000020F004002168C8612068C0692969084375
:102710002168C86119E02946206800F06DFD206835
:10272000C06940F400602168C8612068C06920F475
:1027300080602168C8612068C069296940EA012079
:102740002168C86101E0012700BF00BF00BF002071
:1027500084F83C0000BF384689E710B504460CB940
:10276000012010BD94F83D0028B9002084F83C00F9
:10277000204600F025F8022084F83D00211D206845
:1027800000F028FC012084F8460000BF84F83E00D9
:1027900001213F200155402001554120015500BF36
:1027A00000BF012084F84200432001554420015518
:1027B0004520015500BF012084F83D000020D0E7EE
:1027C00010B586B004464B492068884240D100BF0E
:1027D0004948806940F00800474988610846806997
:1027E00000F00800019000BF00BF00BF0846C069AC
:1027F00040F00200C8610846C06900F00200019084
:1028000000BF00BF2020029002200390012004900E
:102810000320059002A93948FEF798FE00BF36480C
:10282000806940F00100344988610846806900F001
:102830000100019000BF00BF00BF3149486820F48B
:10284000406040F0E06040F40060486000BF4EE04F
:102850002068B0F1804F4AD100BF2748806940F01E
:102860000400254988610846806900F00400019051
:1028700000BF00BF00BF0846C06940F00100C8614A
:102880000846C06900F00100019000BF00BF0120B0
:10289000029002200390002004900320059002A9DA
:1028A0001848FEF753FE0220029003900020049087
:1028B0000320059002A91348FEF748FE0420029069
:1028C00002200390012004900320059002A90D48E6
:1028D000FEF73CFE082002900220039001200490A5
:1028E0000320059002A90748FEF730FE00BF06B09E
:1028F00010BD00000004004000100240000C014028
:1029000000000140000801407047000070B5044617
:102910000D4615B994F83E000BE0042D02D13F207E
:10292000005D06E0082D02D14020005D01E041205D
:10293000005D012801D0012070BD1DB9022084F87E
:102940003E000EE0042D03D102213F20015508E096
:10295000082D03D102214020015502E0022141202F
:10296000015501222946206800F082FB1F4920689A
:10297000884203D01E492068884201D1012000E02E
:10298000002028B12068406C40F400402168486471
:1029900016492068884213D01549206888420FD014
:1029A0002068B0F1804F0BD012492068884207D0D0
:1029B00011492068884203D01049206888420CD110
:1029C0002068806800F00706062E0CD0206800689A
:1029D00040F001002168086005E02068006840F0D0
:1029E0000100216808600020A6E70000002C0140DB
:1029F000003401400004004000080040000C00408A
:102A000070B50446002515492068884206D100F0BB
:102A10003BFF0546284600F0C3FE1DE01049206834
:102A2000884219D10F480068006800F01000102893
:102A300009D10D48D0E90020521E60F100000A497A
:102A4000C1E9002008E00848D0E90020521C40F10C
:102A500000000549C1E9002070BD000000100040E1
:102A6000000800403C00002018000020704770471C
:102A7000704700002DE9F84F04462068056820687B
:102A8000C668206847694FF00009CA4605F00F097B
:102A9000B9F1000F0AD105F0200038B106F020008E
:102AA00020B1204600F022FCBDE8F88FB9F1000FFC
:102AB0007BD007F0010018B906F49070002874D09C
:102AC00005F0010030B106F4807018B1606C40F080
:102AD0000100606405F0040030B107F0010018B196
:102AE000606C40F00200606405F0020030B107F055
:102AF000010018B1606C40F00400606405F008004B
:102B000048B106F0200010B907F0010018B1606C60
:102B100040F008006064606C002845D005F020009B
:102B200028B106F0200010B1204600F0DFFB20683D
:102B30004069C0F3801A606C00F0080010B9BAF167
:102B4000000F2CD0204600F08BFB2068406900F07D
:102B5000400000B300BF00BF2168143151E8001FDE
:102B600021F040002168143141E80002002AF3D12D
:102B700000BFE06B50B17748E16B4863E06BFEF754
:102B8000FDFB88B1E06B416B88470DE02046FFF705
:102B90006FFF09E009E02046FFF76AFF04E02046E6
:102BA000FFF766FF002060647EE7206B012877D185
:102BB00005F01000002873D006F010000028FAD0AD
:102BC00000BF0020009020680068009020684068E6
:102BD000009000BF00BF2068406900F0400000285E
:102BE0005FD0E06B006840681FFA80F8B8F1000F12
:102BF00055D0A08D404552DDA4F82E80E06B806951
:102C0000202843D000BF00BF21680C3151E8001FCD
:102C100021F4807021680C3141E80002002AF3D1D0
:102C200000BF00BF00BF2168143151E8001F21F030
:102C300001002168143141E80002002AF3D100BFED
:102C400000BF00BF2168143151E8001F21F040008F
:102C50002168143141E80002002AF3D100BF20208E
:102C600084F842000020206300BF00BF21680C31BF
:102C700051E8001F21F0100021680C3141E80002EA
:102C8000002AF3D100BFE06BFEF74CFB022060632B
:102C9000A08DE28D801A81B22046FFF7E8FE03E79F
:102CA00042E0A08DE18D401A1FFA80F8E08DD0B38C
:102CB000B8F1000F37D000BF00BF21680C3151E8D8
:102CC000001F21F4907021680C3141E80002002AB5
:102CD000F3D100BF00BF00BF2168143151E8001FCD
:102CE00021F001002168143141E80002002AF3D1EB
:102CF00000BF202084F842000020206300BF00BFF6
:102D000021680C3151E8001F21F0100021680C31BE
:102D100041E80002002AF3D100BF0220606341466F
:102D20002046FFF7A4FEBFE605F0800030B106F0B4
:102D3000800018B1204600F0F5FBB5E605F0400034
:102D400030B106F0400018B1204600F0BFFAABE603
:102D500000BFA9E64D32000810B504460CB90120A9
:102D600010BDA06900B100E000BF94F8410028B98F
:102D7000002084F84000204600F02AF8242084F83F
:102D800041002068C06820F400502168C8602046D7
:102D900000F02AFB2068006920F490402168086157
:102DA0002068406920F02A00216848612068C068D6
:102DB00040F400502168C86000206064202084F83E
:102DC000410084F842000020606300BFC8E70000B3
:102DD00010B586B0044627492068884247D100BF15
:102DE0002548806940F4804023498861084680690D
:102DF00000F48040019000BF00BF00BF084680691A
:102E000040F0040088610846806900F004000190E9
:102E100000BF00BF00BF0846806940F00100886124
:102E20000846806900F00100019000BF00BF48150E
:102E3000029002200390012004900320059002A933
:102E40000E48FEF783FB4FF4806002900020039051
:102E500004900320059002A90848FEF777FB03229F
:102E600011462520FEF79EFD2520FEF78BFD06B0BE
:102E700010BD000000380140001002400008014071
:102E800070B504460D46164694F8420020280BD132
:102E900005B10EB9012070BD0020206332462946DD
:102EA000204600F01FFBF6E70220F4E700B50346DA
:102EB00003491868884201D100F010FE00BD0000EF
:102EC00000380140704700BFFEE7000008B500BFB2
:102ED0000D48806940F010000B4988610846806900
:102EE00000F01000009000BF00BF00BF08468069DE
:102EF00040F0040088610846806900F004000090FA
:102F000000BF00BF08BD00000010024000BFFEE788
:102F100000BFFEE77047000008B508490968C90806
:102F20004FF47A72B1FBF2F14143009100BF00BF50
:102F300000994A1E00920029F9D108BD1000002016
:102F4000704710B5FEF7AEFC10BD00B58FB028215C
:102F500005A8FDF7E9F914216846FDF7E5F9012018
:102F6000059000040690002007900120099002209F
:102F70000C90C1030D914FF4E0110E9105A8FEF7DE
:102F800087FE08B1FEF7CBF90F20009002200190D8
:102F9000002002904FF480600390002004900221F2
:102FA0006846FEF751FD08B1FEF7B9F90FB000BD54
:102FB0007047000010B50248FFF781FA10BD00000D
:102FC0003C00002010B50248FFF779FA10BD000060
:102FD000A800002010B50268204B98420ED0204B6C
:102FE00098420BD0B0F1804F08D01E4B984205D0CC
:102FF0001D4B984202D01D4B984203D122F0700223
:103000004B681A43154B98420ED0154B98420BD083
:10301000B0F1804F08D0134B984205D0124B984224
:1030200002D0124B984203D122F44072CB681A436B
:1030300022F080034C6943EA040202608B68C36299
:103040000B688362054B984202D0054B984201D130
:103050000B6903630123436110BD0000002C014094
:10306000003401400004004000080040000C004013
:1030700030B501F01F05012404FA05F3046A9C43EE
:103080000462046A01F01F0502FA05F52C4304628C
:1030900030BD000030B5026A056A25F00105056201
:1030A0004368846924F0700424F003040D682C4301
:1030B00022F002028D682A43104DA84200D103E09D
:1030C0000F4DA84206D100BF22F00802CD682A4366
:1030D00022F00402094DA84202D0094DA84207D1AE
:1030E00023F4807323F400734D692B438D692B43C4
:1030F000436084614D684563026230BD002C01402D
:103100000034014030B5026A056A25F010050562F9
:103110004368846924F4E04424F440740D6844EA6C
:10312000052422F020028D6842EA0512124DA842C1
:1031300000D103E0114DA84207D100BF22F0800268
:10314000CD6842EA051222F040020B4DA84202D09F
:103150000A4DA84209D123F4806323F400634D692A
:1031600043EA85038D6943EA8503436084614D68C2
:103170008563026230BD0000002C01400034014034
:1031800030B5026A056A25F4807505624368C46932
:1031900024F0700424F003040D682C4322F4007220
:1031A0008D6842EA0522124DA84200D103E0114D7C
:1031B000A84207D100BF22F40062CD6842EA05228E
:1031C00022F480620A4DA84202D00A4DA84209D1D9
:1031D00023F4805323F400534D6943EA05138D69AA
:1031E00043EA05134360C4614D68C563026230BDA4
:1031F000002C01400034014030B5036A056A25F413
:10320000805505624468C26922F4E04222F44072AB
:103210000D6842EA052223F400538D6843EA053322
:10322000084DA84202D0084DA84204D124F480449D
:103230004D6944EA85144460C2614D6805640362C7
:1032400030BD0000002C01400034014070B505463F
:103250006C6A0020E085E0842046FFF709FC70BD21
:1032600000BF00BF02680C3252E8002F22F49071B8
:1032700002680C3242E80013002BF3D100BF00BFFC
:1032800000BF0268143252E8002F22F001010268E8
:10329000143242E80013002BF3D100BF016B012967
:1032A0000ED100BF00BF02680C3252E8002F22F09E
:1032B000100102680C3242E80013002BF3D100BF6A
:1032C000202180F8421000210163704710B50446A8
:1032D0002068C06820F040002168C860202084F881
:1032E00041002046FFF7EEFD002010BDF8B5044672
:1032F00094F84200222875D1A068B0F5805F0CD107
:10330000206950B90025A66A20684068C0F308000B
:103310003080A06A801CA06215E0A56A0026A06823
:10332000B0F5805F03D0A06828B9206918B920687B
:103330004068287004E02068406800F07F00287032
:10334000A06A401CA062E08D401E80B2E08500288B
:1033500046D12068C06820F020002168C86020683D
:10336000C06820F480702168C8602068406920F03F
:10337000010021684861202084F842000020606339
:10338000206B012826D10020206300BF00BF2168E8
:103390000C3151E8001F21F0100021680C3141E888
:1033A0000002002AF3D100BF2068006800F010007E
:1033B00010280AD100BF002000902068006800900B
:1033C00020684068009000BF00BFA18D2046FFF735
:1033D0004EFB02E02046FFF769FD0020F8BD01E04A
:1033E0000020FBE70220F9E770B50446216809696F
:1033F00021F44051E2681143226811612269A168F9
:103400001143626941EA02052168C96841F20C6210
:10341000914329432268D1602168496921F44071B0
:10342000A2691143226851612D4A2168914202D15B
:10343000FEF7E6FB01E0FEF7D3FB00EBC00101EB7A
:10344000001162689200B1FBF2F100EBC00202EBE6
:10345000001263689B00B2FBF3F26423B2FBF3F249
:1034600002EBC20303EB0212A1EB8201322202EB58
:1034700001116422B1FBF2F101F0F00100EBC00296
:1034800002EB001263689B00B2FBF3F26423B2FB11
:10349000F3F201EB021200EBC00101EB00116368D3
:1034A0009B00B1FBF3F100EBC00303EB0013666874
:1034B000B600B3FBF6F36426B3FBF6F303EBC306E7
:1034C00006EB0313A1EB8301322303EB0111642309
:1034D000B1FBF3F101F00F0111442268916070BD5E
:1034E0000038014010B5034699629A85DA850020BC
:1034F0005864222083F84200186928B11868C0680F
:1035000040F480701C68E0601868406940F0010079
:103510001C6860611868C06840F020001C68E060AA
:10352000002010BD014691F84100212828D188686B
:10353000B0F5805F0BD1086948B90A6A1088C0F3FA
:1035400008000B685860086A801C086205E00B6A76
:10355000581C086218780B685860C88C401E80B2EE
:10356000C88458B90868C06820F080000B68D8602B
:103570000868C06840F040000B68D86000207047C1
:103580000220FCE710B50448FFF774FA0122034952
:103590000148FFF775FC10BDC40100202400002085
:1035A00000BFFEE7490050EAC12018BF04204A0DC1
:1035B00018BF40F0010040F2FF72B2EB515F08BF4C
:1035C00040F00200012808BF05207047024800684B
:1035D000C0F30220704700000CED00E010B5002899
:1035E00004DB0A07130E054A135406E00A07140EFB
:1035F000034A00F00F031B1FD45410BD00E400E089
:1036000018ED00E000BF704710B500201349486076
:10361000086088603420087311481249086000204F
:1036200048604FF6FF710F48C16080218161002121
:10363000016103200C490860002008614860C860EF
:1036400001208860002008624861C861012088610B
:103650000448FEF709FE00F001F910BD2C0000201F
:10366000000800403C0000208400002010B5044603
:1036700054B9012202210B48FEF708F90022042167
:103680000848FEF703F90BE0012C09D100220221C2
:103690000448FEF7FBF8012204210248FEF7F6F881
:1036A00010BD00000020014010B586B00446002087
:1036B000184908611E20087600BF1748806940F449
:1036C0008070154988610846806900F48070019017
:1036D00000BF00BF02200290012003900020049050
:1036E0000320059002A90D48FDF730FF0420029049
:1036F00001200390002004900320059002A90748B0
:10370000FDF724FF0120FFF7B1FF204600F008F885
:1037100006B010BD1801002000100240002001403A
:1037200010B588B004464FF080401C49086047201F
:10373000486063211948C160002181604FF48041D5
:103740008161FFF70AF86020019002940020049044
:10375000002201A91148FEF77EFF042201A90F48AB
:10376000FEF779FF082201A90C48FEF774FF0C222E
:1037700001A90A48FEF76FFF00210848FFF7C6F8C5
:1037800004210648FFF7C2F808210448FFF7BEF8F5
:103790000C210248FFF7BAF808B010BD7C010020E8
:1037A0002DE9F0410546002600272748456040687E
:1037B00025490968401A4FF47A714843C0EB00105C
:1037C00080002149097B90FBF1F8404600F000FEA3
:1037D0001D4988601D49087E00F012FE80461A4986
:1037E0008868414600F032FD19490A780978491C79
:1037F000174B1970174941F82200184600780A281B
:1038000020D100201946087009220021114800F03B
:1038100015F9022408E00F4850F82410304600F053
:10382000A7FC0646601CC4B2082CF4DB0A493046EB
:1038300000F00CFD074605480169384600F034F8F1
:1038400002490861BDE8F0812C0000201801002029
:1038500020000020F00000200000C04010B5084803
:10386000084908604720486040F2E7310548C160D8
:103870000021816080218161FEF758FC10BD0000AD
:1038800000100040A800002005480068406A054973
:103890000A684FF48031A2FB011240187047000003
:1038A0003C000020180000202DE9FC5F83460C46F8
:1038B000204600F031FC07464FF066320C4B00F01A
:1038C00043FA81468A46584600F026FC07464FF0E8
:1038D0003332084B00F038FA4A465346CDE900012E
:1038E00000F08AF9054600F055F9BDE8FC9F00009C
:1038F0006666E63F3333D33F00BF054A126812685D
:10390000C2F38012002AF8D0C2B2024B1A6070478C
:10391000C401002004380140FDF7D0FFFFF715FB7C
:10392000FFF7D4FA5A20FFF7BFFEFFF76DFE4FF402
:10393000E13000F0B5F80CA0FCF77AFC13E00E497A
:10394000086900F0E9FB04460B460C480068401C7F
:103950000A4A01461060224609A0FCF769FC4FF4B0
:10396000FA60FDF7DFFDEAE748656C6C6F20576F82
:10397000726C640D0A000000180100200000002095
:1039800025642E6D6F746F72207370656564206995
:10399000733A2025662072706D2E0D0A000000001B
:1039A0002DE9F05F04460E4692469846DDF828B0B1
:1039B000554608F10100C7B2D1461DE054F8271062
:1039C00054F8250000F030FD0BD22846691CCDB21A
:1039D00054F820204846411C01F0FF0946F82020F9
:1039E0000AE03846791CCFB254F820204846411CE2
:1039F00001F0FF0946F82020454501DC5F45DDDD8B
:103A00000AE02846691CCDB254F820204946481CDB
:103A100000F0FF0946F821204545F2DD0AE038466E
:103A2000791CCFB254F820204846411C01F0FF0910
:103A300046F820205F45F2DDBDE8F09F2DE9F0411A
:103A40008CB080460C4615460027282102A8FCF7BA
:103A50006BFC0026AC4202D10CB0BDE8F0816019CD
:103A6000C7B23A4621464046FFF7E8FF781CC1B28C
:103A70002A464046FFF7E2FF3B46224602A940465F
:103A80000095FFF78DFF264606E002A850F82600B5
:103A900048F82600701CC6B2AE42F6DD00BFDBE778
:103AA00010B504460A480B490860084644600021E6
:103AB0008160C16001610C2141610021C1618161AE
:103AC000FFF74AF9012204490248FFF7D9F910BD6E
:103AD00000380140C4010020240000201F48008855
:103AE00000F4004058BB1D48008800F4804070B1CD
:103AF0001B4800780A2806D11848008840F4004086
:103B00001649088029E000201449088025E014485F
:103B100000780D2806D11148008840F480400F49F4
:103B200008801AE00E4800780A2805D00B48008863
:103B3000C0F30D00C82803D30020084908800CE01A
:103B40000748007805490988C1F30D01054A50541A
:103B500002480088401C0149088070472600002068
:103B6000240000200C02002010B500290AD008789B
:103B7000002807D005487844FCF7C6FF002801D08C
:103B8000002010BD0248784410BD00007E0B0000EC
:103B9000760B000021F00042A2F16052B2F5801FC6
:103BA00001F0004328BFD2F17F6C0BD95FEA001C03
:103BB00043EAC20242EB507018BF704728BF20F0A2
:103BC00001007047B2F5801FBCBF184670474FEA2E
:103BD000410C1CF5001F02D2084600F09FBC70B5D6
:103BE00000F05CF900000089FFF7F6BF4FF00040DD
:103BF000A0F580007047000010B591EA030F48BFA0
:103C000083F0004300F1A681841A71EB030C05D206
:103C1000121943EB0C03001B61EB0C01DFF824E1EC
:103C20004FEA1154A4EB135C1EEA430F18BF9EEA3F
:103C3000445F73D023EA0E03DCF1200E21EA045125
:103C400043F4801332D322FA0CFE10EB0E0023FA59
:103C50000CFE41EB0E01CCF1200E03FA0EFE10EB30
:103C60000E0051F10001B1F5801FCCF1200E32D2CF
:103C700001EB045112FA0EF2BDE8104058BF704734
:103C8000401C38BF5FEA420218BF7047002814BFCB
:103C900020F0010041F100014FEA410313F5001F3C
:103CA00038BF7047A1F1C04100F046B9012A43EB8B
:103CB0000302ACF1200CDCF11F0E32BF4FF0000EFE
:103CC00023FA0CF310EB030041EB0451B4EB115F4A
:103CD000D0D0A1EB045101F5801149085FEA300012
:103CE00001EB04510ED350F1000038BF12FA0EFE62
:103CF00008D1BDE81040C9E7401C38BF5FEA420266
:103D0000CAD1C3E7BDE810404FEA410313F5001FD5
:103D100038BF7047A1F1C04100F00EB99EEA445F80
:103D200008D011EA5E0FBDE8104004BF01F0004169
:103D300000207047BDE8104070B500F0AFF800BF3C
:103D400064FBBE3E0000E0FFDFF848C170B51CEA2E
:103D5000111E1EBF1CEA13159EEA0C0F95EA0C0FEC
:103D600000F06F8081EA030423EA4C134EEAD47E0C
:103D700021EA4C1141F4801143F48013AE44A1FBBD
:103D8000024CA0FB0365AEF17F7E361955EB0C05A6
:103D9000A1FB034C4CF10003A0FB021C16EB0C062C
:103DA000654153F10003094218BF46F0010613F4C0
:103DB000007F0BD14FEA03314FEA0530340341EA6B
:103DC000155140EA16506FF003020AE04FEAC32192
:103DD0004FEAC520F40241EA555140EA56506FF0CF
:103DE000020202EB2E4201EB025585EACE710AD0A7
:103DF0005FEA440C18BF24F0004450F1000041F188
:103E0000000120EAD47040F2FE7C624500D270BD11
:103E1000A84214BF4FF080444FF04044002E08BF2A
:103E20000024BEF1806FA8BFA1F1C041BDE8704081
:103E300080F282804FF0000001F1C04101F00041AA
:103E400070479EEA0C0F0CEA131518BF95EA0C0F89
:103E500006D04FF0000081EA030E0EF0004170BD65
:103E600000F01CF88900013E00F007B800F009B826
:103E70004FEA430C5FEA5C5C08D081EA030100F082
:103E80005BB84FEA410C5FEA5C5CF6D14FF0000092
:103E9000014970470000FF070000F87F0EF1020E95
:103EA0002EF0030E5EF8046B364205D4012A43EB74
:103EB000030515F5001F12D8012841EB010C1CF574
:103EC000001F0CD80ED14FEAD17C15F5001F0CEB6A
:103ED0004C0C0CF1020C08BF4CEBD37C04E04FF00F
:103EE000080C01E04FEAD37C0CEB4C0526FA05F6F2
:103EF00006F00706B6F1040C06D20EEB860CBDE800
:103F000070404CF0010C6047DFE80CF0090B020236
:103F10004FF000414FF00000A1F5002170BD19469F
:103F20001046012851EB010418BFD4F5001484BFDA
:103F3000002001F0004170BD0808A0F500114FEA13
:103F40003101704710B591EA030F48BF83F0004379
:103F50003FF55AAE841A71EB030C07D212198CF09C
:103F6000004C43EB0C03001B61EB0C01DFF8A4E1F8
:103F70004FEA1154A4EB135C1EEA430F18BF9EEAEC
:103F8000445F00F0B08023EA6E03524221EA0451FC
:103F9000C3EB6E0338BF5B1EDCF1200E25D322FA83
:103FA0000CFE10EB0E0043FA0CFE41EB0E01CCF1BF
:103FB000200E03FA0EFE10EB0E0051F10001CCF1C1
:103FC000200E29D412FA0EF201EB0451BDE8104084
:103FD00058BF7047401C1CBFB2F1004F704700280B
:103FE0000CBF491C20F00100704712EB020E43EB9E
:103FF000030218BF4FF0010E4EEA4202ACF1200C52
:10400000DCF11E0E54D943FA0CFE10EB0E0051F1F8
:10401000FF31CCF11E0ED5D50EF1010E12FA0EFEB7
:10402000404141EB010101EB445C5FEA5C5C10D96B
:1040300010EBDE7001EB045138BFBEF1004FBDE85C
:10404000104018BF704700280CBF491C20F0010029
:10405000704730D24FEAD42C11F5001124F40064DB
:104060001BD0B1FA81F20B3AA41AA41ED2F120039C
:10407000914030FA03F31943904001EBCC71002CCE
:1040800001EB0451BDE81040A8BF704701F1C041E9
:104090004FF0000001F000417047B0FA80F310FAD1
:1040A00003F100D110BDE41A173C4805C90AE4E742
:1040B00001EB045110BD491001EB0451BDE8104063
:1040C0004FEA300002E04FF0000170474A0008BF9D
:1040D0000042F8D0B2F5001F28BF704701F0004140
:1040E0004FF0000070479EEA445F07D011EA5E0F70
:1040F000BDE8104004BF002100207047BDE810401B
:1041000070B5FFF7CBFE00BF40DFF63E83F0004105
:10411000104670470000E0FF43004FEAD30C4FEA1F
:104120003C0C43401FBF40070CF1605113F0FE4FA1
:1041300070471CF0006F03D100200CF00041704765
:104140000CF0004343EA507010B540EACC0000F098
:104150009FF900BF000000924FEA0001FFF7ECBE9C
:104160004FF000414FF00000A1F500217047000022
:1041700090EA010F48BF81F0004100F1DC81421A52
:104180003CBF801A89184FEAD0524FF07F4C1CEA8E
:10419000410FA2EBD15318BF9CEA026F00F03B80A5
:1041A0004FF0004C4CEA00204CEA012121FA03FCBC
:1041B00010EB0C0C1ED202F1FF325FEA1C2040EB28
:1041C000C25038BF70471CF07F0F4FEA400C18BF39
:1041D000BCF17F4F38BF7047C3F12003994008BF3F
:1041E00020F00100BCF17F4F38BF7047A0F1C04004
:1041F00000F094B94FEA3C00000A40EBC25028BFDF
:104200001CF0FF0F4FEA400CE6D018BFBCF17F4F07
:1042100038BF7047EAE79CEA026F05D010EA5C0FEE
:1042200008BF00F00040704710B500F031F900BF42
:1042300064FBBE3E401058BFC0F14040491058BF1B
:10424000C1F140418142EFF3008070474FF47F0C91
:104250001CEAD0121EBF1CEAD11392EA0C0F93EA9B
:104260000C0F00F0858090EA010F48BF42F4807285
:1042700040F4000C41F400002CF07F4120F07F401E
:1042800000B58142A2EB03020FF2081CACEB504ECA
:10429000C0F100009EF800E04FEA4E0E00FB0EFC5D
:1042A00038BF49004FEA2C1C02F5FA020CFB0EF352
:1042B0004FEACE1E4FEA112C4FEAC1210EEB635E8E
:1042C00042EB22420EFB0CFC4FEA1C5300FB031195
:1042D0004FEA112C4FEA01310EFB0CFC4FEADC4C8B
:1042E00000FB0C11C14228BF09184CEB03335DF8E9
:1042F00004EB10EB410143EBC250B2F57C0F38BF29
:10430000704729D512F0F00F1CBF00F1C04000F03B
:1043100000407047008182838485868788898B8CE2
:104320008D8E8F919293959697999A9C9D9FA0A21E
:10433000A3A5A7A8AAACAEB0B2B3B5B7B9BCBEC06E
:10434000C2C5C7C9CCCED1D4D7D9DCDFE2E6E9EC0F
:10435000F0F3F7FAFE0000004FEA400C0CF1807C0D
:10436000BCF17E4F28BF7047B0F1C04000F0D6B816
:1043700090EA010F0CEAD11348BF42F48072624503
:1043800038BF634507D213F47F0F16D080EA0100CF
:1043900000F00040704710B500F07AF8097EFC3E4E
:1043A00000F005B880EA010000F00040704780EAA4
:1043B000010000F0004000F0B1B812F47F0F04BF1C
:1043C0000248704780EA010000F0A8B80000C07FF2
:1043D00010F0004148BF4042B0FA80F310FA03F2F7
:1043E000C3F19D030BD051EAC35101EB12205306D8
:1043F00038BF704700F1010008BF20F0010070478E
:10440000B0FA80F310FA03F2C3F19D030AD0D90584
:1044100001EB1220530638BF704700F1010008BFBE
:1044200020F001007047000050EA010C00F11380F9
:104430001CF5000F58BFBCF5000F01D4884270472F
:1044400007D710F5000F58BF11F5000F15D488429B
:104450007047894270471CF5000F04D5BCF5000F6A
:10446000F7D5814270474FF0807C1CEB400F38BF7E
:104470001CEB410F01D28142704710B500F008F8E3
:10448000922449004FF000504FF08051FFF7D2BE08
:104490000EF1020E2EF0030E5EF8044B244204D4FB
:1044A0004FEA4102B2F17F4F11D84FEA4003B3F116
:1044B0007F4F0CD80ED14FEAD07CB2F17F4F0CEB7E
:1044C0004C0C0CF1020C08BF4CEBD17C04E04FF01B
:1044D000080C01E04FEAD17C0CEB4C0324FA03F406
:1044E00004F00704B4F1040C06D20EEB840CBDE812
:1044F00010404CF0010C6047DFE80CF007080202A6
:104500004FF00040A0F5800010BD0846420018BFE3
:10451000D2F1807288BF00F0004010BDFF2141EA57
:10452000D050C0057047000090EA010F48BF81F0ED
:1045300000413FF524AE421A04D882F00042A0EBBD
:10454000020011444FEAD0524FF07F4C1CEA410F59
:10455000A2EBD15318BF9CEA026F4AD04FF0004C37
:104560004CEA00204CEA012121FA03FCB0EB0C0CD0
:104570000FD412F0FE0F36D05FEA4C001DD50012AA
:1045800040EBC25038BF70471CF03F0F18BF704758
:104590000BE0A2F101025FEA1C2040EBC25038BFE1
:1045A00070471CF07F0F18BF7047C3F1200399407C
:1045B00014BF401E20F00100704780084FEA12230C
:1045C00008BF7047B0FA80FCA2EB0C02CCF1280CBB
:1045D00060FA0CF093EA122F04BF00EBC250704750
:1045E0004FEAC3707047130A5FEADC1008BF7047D8
:1045F000F6E79CEA026F04D010EA5C0F08BF0020C7
:10460000704710B5FFF744FF40DFF63E81F00040F1
:104610007047FBF7E6BF02030405060708090A0B0B
:104620000C0D0E0F10100102000000000000000031
:104630000102030406070809000000000102030448
:1046400002400000000000A0000000000540000043
:10465000000000C8000000000C4000000000409C6A
:1046600000000000194000000020BCBE0000000057
:1046700034400000BFC91B8E00000004B54000009C
:10468000504BCFD06607E2CF010000006C41000024
:104690003E8251AADFEEA73401000000D94200009B
:1046A000DCB5A0E23A301F97FFFFFFFFB4450000E2
:1046B000FD25A0C8E9A3C14FFFFFFFFFFF3F00009A
:1046C0000000008000000000FF3F000000000080AC
:1046D0000000000010470008000000202C0000002F
:1046E0006C0100083C4700082C0000200C09000069
:1046F000880100081C00000043000000F8FFFFFFD5
:104700000C0000000E0000000F0000002E00000052
:104710000000000000000000100000000100000088
:104720000024F40000000000000000000000000071
:0C4730000000000000000000000000007D
:0400000508000131BD
:00000001FF
