:020000040800F2
:1000000010070020CD010008A51500085B150008A9
:10001000A1150008C90200081D1900080000000011
:100020000000000000000000000000004116000871
:10003000CD02000800000000A915000843160008C2
:10004000E7010008E7010008E7010008E7010008F0
:10005000E7010008E7010008E7010008E7010008E0
:10006000E7010008E7010008E7010008E7010008D0
:10007000E7010008E7010008E7010008E7010008C0
:10008000E7010008E7010008E7010008E7010008B0
:10009000E7010008E7010008E7010008E7010008A0
:1000A000E7010008E7010008E7010008E701000890
:1000B000E7010008E7010008E7010008E701000880
:1000C000E7010008E7010008E7010008E701000870
:1000D000E701000801190008E7010008E70100082E
:1000E000E7010008E7010008E7010008E701000850
:1000F000E7010008E7010008E7010008E701000840
:10010000E7010008E7010008E7010008E70100082F
:10011000E7010008E7010008B5160008E70100083C
:10012000E7010008E7010008E7010008E70100080F
:1001300000F002F800F03AF80AA090E8000C8244BF
:100140008344AAF10107DA4501D100F02FF8AFF29C
:10015000090EBAE80F0013F0010F18BFFB1A43F0A5
:10016000010318475018000070180000103A24BF0F
:1001700078C878C1FAD8520724BF30C830C144BF0C
:1001800004680C607047000000230024002500264E
:10019000103A28BF78C1FBD8520728BF30C148BFEA
:1001A0000B6070471FB51FBD10B510BD00F05AF8A9
:1001B0001146FFF7F7FF01F0D1FB00F078F803B428
:1001C000FFF7F2FF03BC01F0C7FB000009488047BE
:1001D00009480047FEE7FEE7FEE7FEE7FEE7FEE729
:1001E000FEE7FEE7FEE7FEE704480549054A064B41
:1001F00070470000B116000831010008100100200E
:1002000010070020100300201003002070474FF05B
:10021000000200B5134694469646203922BFA0E856
:100220000C50A0E80C50B1F12001BFF4F7AF090762
:1002300028BFA0E80C5048BF0CC05DF804EB890053
:1002400028BF40F8042B08BF704748BF20F8022B96
:1002500011F0804F18BF00F8012B704770477047AE
:1002600070477047754600F02BF8AE4605006946AA
:10027000534620F00700854618B020B5FFF7B4FFBD
:10028000BDE820404FF000064FF000074FF0000897
:100290004FF0000B21F00701AC46ACE8C009ACE818
:1002A000C009ACE8C009ACE8C0098D46704710B57C
:1002B0000446AFF300802046BDE81040FFF77FBF43
:1002C00000487047AC00002000BFFEE7704772B6E0
:1002D00000BFFEE70146002291F82100022808D065
:1002E0000420886300BF002081F8200000BF0120A7
:1002F00070470868006820F00E000B6818600868F6
:10030000006820F001000B68186091F8403001206F
:100310009840CB6B5860012081F8210000BF00207D
:1003200081F8200000BF1046E2E7000070B50446E7
:10033000002594F82100022803D00420A0630125A1
:10034000C1E02068006820F00E0021680860206885
:10035000006820F00100216808605C49206888423C
:1003600052D95A4978392068884201D1012047E0A2
:10037000564964392068884201D1102040E0534931
:1003800050392068884201D1801539E04F493C3905
:100390002068884201D1801432E04C492839206815
:1003A000884202D14FF480302AE04849143920684D
:1003B000884202D14FF4801022E0444920688842EC
:1003C00001D140041CE042492068884201D101204B
:1003D00016E03F4914312068884201D110200FE017
:1003E0003B4928312068884201D1801508E038490E
:1003F0003C312068884201D1801401E04FF4803004
:100400003349091F086051E0304978392068884233
:1004100001D1012047E02D4964392068884201D18B
:10042000102040E0294950392068884201D18015C8
:1004300039E026493C392068884201D1801432E0F5
:10044000224928392068884202D14FF480302AE0BE
:100450001E4914392068884202D14FF4801022E0EE
:100460001A492068884201D140041CE018492068DC
:10047000884201D1012016E01549143120688842D4
:1004800001D110200FE0124928312068884201D1A3
:10049000801508E00E493C312068884201D1801463
:1004A00001E04FF48030094980394860012084F828
:1004B000210000BF002084F8200000BF606B10B155
:1004C0002046616B8847284670BD000080000240CE
:1004D0000804024070B5044600F0B6F90646254609
:1004E000681C10B104480078054400BF00F0ACF966
:1004F000801BA842FAD370BD080000202DE9F84700
:10050000024600239C467BE14FF0010808FA03F401
:10051000D1F8008008EA0400A0427DD1DFF8F4A2FF
:10052000D1F80480A8EB0A09D0453AD014DCB8F120
:10053000030F50D009DCB8F1000F31D0B8F1010F32
:100540001CD0B8F1020F49D120E0B8F1110F18D03A
:10055000B8F1120F42D11EE0B9F5881F25D006DC94
:10056000B9F5803F20D0B9F5801F37D11AE0B9F531
:10057000001F18D0B9F5041F30D117E0D1F80CC016
:100580002DE0D1F80C8008F1040C28E0D1F80C80A3
:1005900008F1080C23E0D1F80C8008F10C0C1EE0E7
:1005A00000BF00BF00BF00BF00BF00BFD1F8088080
:1005B000B8F1000F02D14FF0040C0BE0D1F8088025
:1005C000B8F1010F03D14FF0080C146102E04FF0B5
:1005D000080C546103E04FF0000C00E000BF00BFC6
:1005E000FF2801D8904601E002F104084646FF28A2
:1005F00002D84FEA830803E0A3F108084FEA88080D
:100600004746D6F800804FF00F0909FA07F928EAA3
:1006100009080CFA07F900E07AE048EA0908C6F888
:100620000080D1F8048008F08058B8F1805F6FD165
:1006300000BFDFF8E481D8F8188048F00108DFF83F
:10064000D891C9F81880C846D8F8188008F0010871
:10065000CDF8008000BF00BF4FEAB9384FEA9309D8
:1006600058F829504FEA83784FEA18794FF00F086D
:1006700008FA09F825EA0805DFF8A081424502D109
:100680004FF0000824E0DFF89881424502D14FF096
:1006900001081DE0DFF88C81424502D14FF00208CD
:1006A00016E0DFF88481424502D14FF003080FE0E5
:1006B000DFF87881424502D14FF0040808E0DFF806
:1006C0007081424502D14FF0050801E04FF0060865
:1006D0004FEA83794FEA197908FA09F848EA0505DB
:1006E000DFF850814FEA930948F82950D1F8048087
:1006F00008F48018B8F5801F0BD1DFF83C81D8F8DA
:10070000008048EA0008DFF83091C9F800800AE06C
:1007100075E0DFF82481D8F8008028EA0008DFF8C7
:100720001891C9F80080D1F8048008F40018B8F5D1
:10073000001F0ED1DFF8008108F10408D8F800800E
:1007400048EA0008DFF8F09009F10409C9F80080D0
:100750000DE0DFF8E48008F10408D8F8008028EA0A
:100760000008DFF8D49009F10409C9F80080D1F835
:10077000048008F40038B8F5003F0ED1DFF8B880E7
:10078000A8F10408D8F8008048EA0008DFF8A8902B
:10079000A9F10409C9F800800DE0DFF89C80A8F1F8
:1007A0000408D8F8008028EA0008DFF88C90A9F146
:1007B0000409C9F80080D1F8048008F48038B8F53D
:1007C000803F0ED1DFF87080A8F10808D8F80080CB
:1007D00048EA0008DFF86090A9F10809C9F800802C
:1007E0000DE0DFF85480A8F10808D8F8008028EA66
:1007F0000008DFF84490A9F10809C9F800805B1CE3
:10080000D1F8008028FA03F8B8F1000F7FF47CAE2D
:10081000BDE8F887000011100010024000080140F8
:10082000000C01400010014000140140001801407C
:10083000001C014008000140080401400AB10161A8
:1008400001E00B0403617047014800687047000035
:100850000000002003480068034909780844014962
:1008600008607047000000200800002010B508480C
:10087000006840F0100006490860032000F098F876
:100880000F2000F007F800F02BF8002010BD00004A
:100890000020024070B504460E4800784FF47A718B
:1008A000B1FBF0F00C490968B1FBF0F5284600F007
:1008B000C3FB08B1012070BD102C07D200222146D5
:1008C000501E00F037F80548046001E00120F2E70F
:1008D0000020F0E7080000200C00002004000020A9
:1008E00008B500BF1148806940F001000F498861D8
:1008F0000846806900F00100009000BF00BF00BF03
:100900000846C06940F08050C8610846C06900F0E0
:100910008050009000BF00BF00BF0549486820F02C
:10092000E06040F00070486000BF08BD0010024069
:10093000000001402DE9F05F80460D461646002775
:1009400000F0EEFF074639462A46334601F007001D
:10095000C0F1070ABAF1040F02D94FF0040A01E00E
:10096000C0F1070AD14600F1040ABAF1070F02D21A
:100970004FF0000A01E0A0F1030AD4464FF0010A4B
:100980000AFA09FAAAF1010A0AEA020A0AFA0CFAB0
:100990004FF0010B0BFA0CFBABF1010B0BEA030B55
:1009A0004AEA0B042146404600F0C2FFBDE8F09F32
:1009B00000BF00F00702064B19684FF6FF0319400D
:1009C000044B0B4343EA0221014B196000BF7047FF
:1009D0000CED00E00000FA0570B504460D460CB9B8
:1009E000012070BD5A48006800F00700A8420ED2EE
:1009F0005748006820F0070028435549086008461A
:100A0000006800F00700A84201D00120E9E7207843
:100A100000F0020002281DD1207800F00400042814
:100A200005D14C48406840F4E0604A49486020786D
:100A300000F00800082805D14648406840F460509E
:100A4000444948604348406820F0F000A1680843EA
:100A500040494860207800F0010078B360680128C0
:100A600006D13C48006800F4003090B90120B8E796
:100A70006068022806D13748006800F0007040B96D
:100A80000120AEE73348006800F0020008B90120F9
:100A9000A7E73048406820F00300616808432D490B
:100AA0004860FFF7D1FE064609E0FFF7CDFE801B48
:100AB00041F28831884202D9032092E707E02548B5
:100AC000406800F00C006168B0EB810FEDD1204868
:100AD000006800F00700A8420ED91D48006820F009
:100AE000070028431A4908600846006800F007001C
:100AF000A84201D0012074E7207800F00400042807
:100B000007D11448406820F4E060E16808431149C7
:100B10004860207800F00800082808D10D48406897
:100B200020F46050216940EAC1000A49486000F0A1
:100B300019F808494968C1F30311074A515CC840D4
:100B40000649086006480068FFF7A4FE002048E751
:100B500000200240001002409A1900080C000020FA
:100B60000400002070B50021002200240023002092
:100B7000134D696801F00C05F5B1042D02D0082D64
:100B800019D101E00F4819E00F4DC1F38346AB5D69
:100B900001F4803555B10A4D6D68C5F340450B4EE3
:100BA000725D084D5D43B5FBF2F402E0084D03FBB6
:100BB00005F4204602E000BF024800BF00BF70BD40
:100BC0000010024000127A008819000898190008E5
:100BD00000093D00F8B504460CB90120F8BD2078A5
:100BE00000F00100002878D0F848406800F00C00C0
:100BF00004280CD0F548406800F00C00082811D1FA
:100C0000F248406800F48030B0F5803F0AD1EF48E8
:100C1000006800F4003000285FD0606800285CD1D4
:100C20000120DBE700BF6068B0F5803F06D1E748F0
:100C3000006840F48030E549086028E0606858B9F1
:100C4000E248006820F48030E04908600846006807
:100C500020F4802008601AE06068B0F5A02F0BD166
:100C6000DA48006840F48020D849086008460068E7
:100C700040F4803008600AE0D448006820F48030F6
:100C8000D24908600846006820F48020086000BF50
:100C9000606888B1FFF7D8FD054606E0FFF7D4FD90
:100CA000401B642801D9032098E7C848006800F475
:100CB00000300028F2D010E0FFF7C6FD054606E040
:100CC000FFF7C2FD401B642801D9032086E7BF4817
:100CD000006800F400300028F2D1207800F0020013
:100CE000022857D1B948406800F00C0050B1B7480D
:100CF000406800F00C00082818D1B448406800F49F
:100D0000803098B9B148006800F0020020B1206935
:100D1000012801D0012061E7AC48006820F0F8000C
:100D2000616940EAC100A949086033E02069E8B17F
:100D30000120A7490860FFF787FD054606E0FFF799
:100D400083FD401B022801D9032047E79F48006824
:100D500000F002000028F2D09C48006820F0F80063
:100D6000616940EAC1009949086013E00020984990
:100D70000860FFF769FD054606E0FFF765FD401BCB
:100D8000022801D9032029E79048006800F00200FA
:100D90000028F2D1207800F0080008282DD1A069A1
:100DA000B8B101208B490860FFF74EFD054606E00B
:100DB000FFF74AFD401B022801D903200EE78348B4
:100DC000406A00F002000028F2D0012000F0EEFBA3
:100DD00013E000207F490860FFF736FD054606E076
:100DE000FFF732FD401B022801D90320F6E67748C1
:100DF000406A00F002000028F2D1207800F00400E0
:100E0000042873D100277148C06900F0805070B980
:100E100000BF6E48C06940F080506C49C861084608
:100E2000C06900F08050009000BF00BF01276A48F1
:100E3000006800F48070B0B96748006840F48070C2
:100E400065490860FFF700FD054606E0FFF7FCFC7A
:100E5000401B642801D90320C0E65F48006800F405
:100E600080700028F2D000BFE068012806D1574802
:100E7000006A40F001005549086227E0E06858B96F
:100E80005248006A20F00100504908620846006A92
:100E900020F00400086219E0E06805280BD14B48F7
:100EA000006A40F00400494908620846006A40F0C0
:100EB000010008620AE04548006A20F00100434949
:100EC00008620846006A20F00400086200BFE0687B
:100ED000A0B1FFF7B9FC054609E0FFF7B5FC401BE0
:100EE00041F28831884202D9032077E622E0374870
:100EF000006A00F002000028EFD012E0FFF7A4FC27
:100F0000054608E0FFF7A0FC401B41F2883188420B
:100F100001D9032062E62D48006A00F00200002893
:100F2000F0D1012F05D12948C06920F08050274910
:100F3000C86100BFE069C8B32448406800F00C00F5
:100F4000082860D0E069022848D1002020490866BE
:100F5000FFF77AFC054606E0FFF776FC401B022807
:100F600001D903203AE61948006800F00070002813
:100F7000F2D1206AB0F5803F07D11448406820F4D0
:100F80000030A168084311494860D4E908010843CA
:100F90000E49496821F4741108430C494860012046
:100FA0000B490866FFF750FC054607E03DE0FFF7F8
:100FB0004BFC401B022801D903200FE603480068C0
:100FC00000F000700028F2D02FE000000010024076
:100FD0000000424280044242007000400020144958
:100FE0000866FFF731FC054606E0FFF72DFC401BC5
:100FF000022801D90320F1E50E48006800F00070D6
:101000000028F2D111E0E069012800D1E6E50948A5
:10101000466806F48031206A814204D106F47011DA
:10102000606A814201D00120D8E50020D6E50000A9
:10103000000042420010024070B504462546681E7A
:10104000B0F1807F01D301200FE0681E4FF0E02156
:1010500048610F214FF0FF3000F06AFC00204FF094
:10106000E021886107200861002070BD704770474B
:10107000704710B5044620680069C0F34000D8B13D
:101080002068C068C0F34000B0B16FF00200216872
:101090000861012020772068806900F0030018B102
:1010A0002046FFF7E5FF05E0204600F0ADF82046BA
:1010B00000F0ABF80020207720680069C0F38000C2
:1010C000D8B12068C068C0F38000B0B16FF00400F0
:1010D00021680861022020772068806900F4407050
:1010E00018B12046FFF7C4FF05E0204600F08CF859
:1010F000204600F08AF80020207720680069C0F3BD
:10110000C000D8B12068C068C0F3C000B0B16FF0B3
:10111000080021680861042020772068C06900F079
:10112000030018B12046FFF7A3FF05E0204600F0BA
:101130006BF8204600F069F80020207720680069ED
:10114000C0F30010D8B12068C068C0F30010B0B17F
:101150006FF0100021680861082020772068C069BE
:1011600000F4407018B12046FFF782FF05E02046EA
:1011700000F04AF8204600F048F800202077206868
:10118000006900F0010058B12068C06800F001005B
:1011900030B16FF0010021680861204600F036F898
:1011A00020680069C0F3C01058B12068C068C0F35F
:1011B000C01030B16FF08000216808612046FFF751
:1011C00055FF20680069C0F3801058B12068C068DE
:1011D000C0F3801030B16FF04000216808612046F4
:1011E00000F022F820680069C0F3401058B1206870
:1011F000C068C0F3401030B16FF020002168086172
:101200002046FFF734FF10BD70477047044A01685D
:10121000914204D103490968491C024A1160704790
:101220000010004018000020704770477047000011
:101230002DE9F84F0446206805682068C6682068D4
:1012400047694FF00009CA4605F00F09B9F1000FD0
:101250000AD105F0200038B106F0200020B1204668
:1012600000F080FABDE8F88FB9F1000F7BD007F0ED
:10127000010018B906F49070002874D005F0010040
:1012800030B106F4807018B1606C40F00100606409
:1012900005F0040030B107F0010018B1606C40F0B7
:1012A0000200606405F0020030B107F0010018B1DF
:1012B000606C40F00400606405F0080048B106F07E
:1012C000200010B907F0010018B1606C40F0080070
:1012D0006064606C002845D005F0200028B106F05D
:1012E000200010B1204600F03DFA20684069C0F3AC
:1012F000801A606C00F0080010B9BAF1000F2CD011
:10130000204600F0E9F92068406900F0400000B391
:1013100000BF00BF2168143151E8001F21F04000D8
:101320002168143141E80002002AF3D100BFE06BCC
:1013300050B17748E16B4863E06BFEF7F7FF88B187
:10134000E06B416B88470DE02046FFF76FFF09E037
:1013500009E02046FFF76AFF04E02046FFF766FF3A
:10136000002060647EE7206B012877D105F0100033
:10137000002873D006F010000028FAD000BF00202B
:10138000009020680068009020684068009000BFCE
:1013900000BF2068406900F0400000285FD0E06B8B
:1013A000006840681FFA80F8B8F1000F55D0A08D92
:1013B000404552DDA4F82E80E06B8069202843D0A0
:1013C00000BF00BF21680C3151E8001F21F480707C
:1013D00021680C3141E80002002AF3D100BF00BFB0
:1013E00000BF2168143151E8001F21F0010021687D
:1013F000143141E80002002AF3D100BF00BF00BF52
:101400002168143151E8001F21F040002168143197
:1014100041E80002002AF3D100BF202084F84200F6
:101420000020206300BF00BF21680C3151E8001F7D
:1014300021F0100021680C3141E80002002AF3D1AC
:1014400000BFE06BFEF746FF02206063A08DE28DD7
:10145000801A81B22046FFF7E8FE03E742E0A08D44
:10146000E18D401A1FFA80F8E08DD0B3B8F1000F7B
:1014700037D000BF00BF21680C3151E8001F21F4B4
:10148000907021680C3141E80002002AF3D100BFBE
:1014900000BF00BF2168143151E8001F21F0010096
:1014A0002168143141E80002002AF3D100BF202056
:1014B00084F842000020206300BF00BF21680C3187
:1014C00051E8001F21F0100021680C3141E80002B2
:1014D000002AF3D100BF0220606341462046FFF797
:1014E000A4FEBFE605F0800030B106F0800018B120
:1014F000204600F0D5F9B5E605F0400030B106F021
:10150000400018B1204600F01DF9ABE600BFA9E687
:10151000C516000870B504460D46164694F84200FC
:1015200020280BD105B10EB9012070BD0020206329
:1015300032462946204600F093F9F6E70220F4E708
:10154000034A0168914202D10121024A1170704799
:101550000038014015000020704700BFFEE7000082
:1015600008B500BF0D48806940F010000B49886144
:101570000846806900F01000009000BF00BF00BF67
:101580000846806940F0040088610846806900F0E0
:101590000400009000BF00BF08BD00000010024022
:1015A00000BFFEE700BFFEE77047000008B508492E
:1015B0000968C9084FF47A72B1FBF2F14143009116
:1015C00000BF00BF00994A1E00920029F9D108BD52
:1015D0000C00002000B585B000BF0D48806940F0C8
:1015E00008000B4988610846806900F008000090F7
:1015F00000BF00BF802001900120029002200490D3
:1016000001A90448FEF77AFF00F006F805B000BD16
:1016100000100240000C014010B501228021024858
:10162000FFF70CF910BD0000000C014010B50022BE
:1016300080210248FFF702F910BD0000000C0140B4
:10164000704710B5FFF706F910BD00B58FB028211F
:1016500005A8FEF7DCFD14216846FEF7D8FD012041
:1016600005900004069000200790012009900220B8
:101670000C90C1030D914FF4E0110E9105A8FFF7F6
:10168000A9FA08B1FEF723FE0F2000900220019076
:10169000002002904FF4806003900020049002210B
:1016A0006846FFF799F908B1FEF711FE0FB000BDCB
:1016B0007047000010B50248FFF7DBFC10BD0000CA
:1016C0006400002070B505466C6A0020E085E08467
:1016D0002046FFF7ABFD70BD00BF00BF02680C32B3
:1016E00052E8002F22F4907102680C3242E8001395
:1016F000002BF3D100BF00BF00BF0268143252E8D4
:10170000002F22F001010268143242E80013002B7E
:10171000F3D100BF016B01290ED100BF00BF0268E9
:101720000C3252E8002F22F0100102680C3242E81D
:101730000013002BF3D100BF202180F842100021BC
:101740000163704710B504462068C06820F040006F
:101750002168C860202084F841002046FFF7FCFE85
:10176000002010BDF8B5044694F84200222875D137
:10177000A068B0F5805F0CD1206950B90025A66A39
:1017800020684068C0F308003080A06A801CA06216
:1017900015E0A56A0026A068B0F5805F03D0A068B8
:1017A00028B9206918B920684068287004E02068CA
:1017B000406800F07F002870A06A401CA062E08DA5
:1017C000401E80B2E085002846D12068C06820F025
:1017D00020002168C8602068C06820F480702168FB
:1017E000C8602068406920F001002168486120201D
:1017F00084F8420000206063206B012826D100207D
:10180000206300BF00BF21680C3151E8001F21F0A8
:10181000100021680C3141E80002002AF3D100BF1A
:101820002068006800F0100010280AD100BF0020D6
:10183000009020680068009020684068009000BF19
:1018400000BFA18D2046FFF7F0FC02E02046FFF725
:1018500077FE0020F8BD01E00020FBE70220F9E759
:1018600010B5034699629A85DA85002058642220D3
:1018700083F84200186928B11868C06840F4807085
:101880001C68E0601868406940F001001C686061F5
:101890001868C06840F020001C68E060002010BD9F
:1018A000014691F84100212828D18868B0F5805F71
:1018B0000BD1086948B90A6A1088C0F308000B68A0
:1018C0005860086A801C086205E00B6A581C0862B0
:1018D00018780B685860C88C401E80B2C88458B90C
:1018E0000868C06820F080000B68D8600868C0688D
:1018F00040F040000B68D860002070470220FCE7F1
:1019000010B50448FFF794FC012203490148FFF792
:1019100001FE10BD1C0000201400002000BFFEE7E7
:1019200002480068C0F30220704700000CED00E0A0
:1019300010B5002804DB0A07130E054A135406E00D
:101940000A07140E034A00F00F031B1FD45410BDE6
:1019500000E400E018ED00E000BF7047FEF786FFEE
:10196000FFF773FEFFF7FCFDFFF734FE0BE0FFF718
:101970005DFE4FF47A70FEF7ADFDFFF74DFE4FF4BC
:101980007A70FEF7A7FDF2E70203040506070809CF
:101990000A0B0C0D0E0F10100102000000000000D9
:1019A000000001020304060708090000000001020C
:1019B00003040000D4190008000000201C000000EF
:1019C0006C010008F01900081C000020F40600005B
:1019D0008801000800000000100000000100000065
:1019E0000024F400000000000000000000000000DF
:0400000508000131BD
:00000001FF
